{
  "_format": "hh-sol-artifact-1",
  "contractName": "Betapp",
  "sourceName": "contracts/Betapp.sol",
  "abi": [
    {
      "inputs": [
        {
          "internalType": "address",
          "name": "vrfCoordinatorV2Plus",
          "type": "address"
        },
        {
          "internalType": "uint256",
          "name": "subscriptionId",
          "type": "uint256"
        },
        {
          "internalType": "bytes32",
          "name": "keyHash",
          "type": "bytes32"
        },
        {
          "internalType": "uint32",
          "name": "callbackGasLimit",
          "type": "uint32"
        },
        {
          "internalType": "address",
          "name": "_uniswapRouter",
          "type": "address"
        }
      ],
      "stateMutability": "nonpayable",
      "type": "constructor"
    },
    {
      "inputs": [
        {
          "internalType": "address",
          "name": "have",
          "type": "address"
        },
        {
          "internalType": "address",
          "name": "want",
          "type": "address"
        }
      ],
      "name": "OnlyCoordinatorCanFulfill",
      "type": "error"
    },
    {
      "inputs": [
        {
          "internalType": "address",
          "name": "have",
          "type": "address"
        },
        {
          "internalType": "address",
          "name": "owner",
          "type": "address"
        },
        {
          "internalType": "address",
          "name": "coordinator",
          "type": "address"
        }
      ],
      "name": "OnlyOwnerOrCoordinator",
      "type": "error"
    },
    {
      "inputs": [],
      "name": "ReentrancyGuardReentrantCall",
      "type": "error"
    },
    {
      "inputs": [
        {
          "internalType": "address",
          "name": "token",
          "type": "address"
        }
      ],
      "name": "SafeERC20FailedOperation",
      "type": "error"
    },
    {
      "inputs": [],
      "name": "ZeroAddress",
      "type": "error"
    },
    {
      "anonymous": false,
      "inputs": [
        {
          "indexed": true,
          "internalType": "uint256",
          "name": "betId",
          "type": "uint256"
        },
        {
          "indexed": false,
          "internalType": "uint256",
          "name": "totalEtherValue",
          "type": "uint256"
        }
      ],
      "name": "BetClosed",
      "type": "event"
    },
    {
      "anonymous": false,
      "inputs": [
        {
          "indexed": true,
          "internalType": "uint256",
          "name": "betId",
          "type": "uint256"
        },
        {
          "indexed": true,
          "internalType": "address",
          "name": "creator",
          "type": "address"
        },
        {
          "indexed": false,
          "internalType": "address",
          "name": "token",
          "type": "address"
        },
        {
          "indexed": false,
          "internalType": "uint256",
          "name": "amount",
          "type": "uint256"
        },
        {
          "indexed": false,
          "internalType": "uint256",
          "name": "endtime",
          "type": "uint256"
        }
      ],
      "name": "BetCreated",
      "type": "event"
    },
    {
      "anonymous": false,
      "inputs": [
        {
          "indexed": true,
          "internalType": "uint256",
          "name": "betId",
          "type": "uint256"
        },
        {
          "indexed": true,
          "internalType": "address",
          "name": "participant",
          "type": "address"
        }
      ],
      "name": "BetJoined",
      "type": "event"
    },
    {
      "anonymous": false,
      "inputs": [
        {
          "indexed": false,
          "internalType": "address",
          "name": "vrfCoordinator",
          "type": "address"
        }
      ],
      "name": "CoordinatorSet",
      "type": "event"
    },
    {
      "anonymous": false,
      "inputs": [
        {
          "indexed": true,
          "internalType": "address",
          "name": "from",
          "type": "address"
        },
        {
          "indexed": true,
          "internalType": "address",
          "name": "to",
          "type": "address"
        }
      ],
      "name": "OwnershipTransferRequested",
      "type": "event"
    },
    {
      "anonymous": false,
      "inputs": [
        {
          "indexed": true,
          "internalType": "address",
          "name": "from",
          "type": "address"
        },
        {
          "indexed": true,
          "internalType": "address",
          "name": "to",
          "type": "address"
        }
      ],
      "name": "OwnershipTransferred",
      "type": "event"
    },
    {
      "anonymous": false,
      "inputs": [
        {
          "indexed": true,
          "internalType": "uint256",
          "name": "betId",
          "type": "uint256"
        },
        {
          "indexed": false,
          "internalType": "uint256",
          "name": "tokenAmount",
          "type": "uint256"
        },
        {
          "indexed": false,
          "internalType": "uint256",
          "name": "ethReceived",
          "type": "uint256"
        }
      ],
      "name": "TokensSwappedToETH",
      "type": "event"
    },
    {
      "anonymous": false,
      "inputs": [
        {
          "indexed": true,
          "internalType": "uint256",
          "name": "betId",
          "type": "uint256"
        },
        {
          "indexed": true,
          "internalType": "uint256",
          "name": "requestId",
          "type": "uint256"
        }
      ],
      "name": "WinnerRequested",
      "type": "event"
    },
    {
      "anonymous": false,
      "inputs": [
        {
          "indexed": true,
          "internalType": "uint256",
          "name": "betId",
          "type": "uint256"
        },
        {
          "indexed": true,
          "internalType": "address",
          "name": "winner",
          "type": "address"
        },
        {
          "indexed": false,
          "internalType": "uint256",
          "name": "winningAmount",
          "type": "uint256"
        },
        {
          "indexed": false,
          "internalType": "uint256",
          "name": "feeAmount",
          "type": "uint256"
        }
      ],
      "name": "WinnerSelected",
      "type": "event"
    },
    {
      "stateMutability": "payable",
      "type": "fallback"
    },
    {
      "inputs": [],
      "name": "acceptOwnership",
      "outputs": [],
      "stateMutability": "nonpayable",
      "type": "function"
    },
    {
      "inputs": [
        {
          "internalType": "address",
          "name": "token",
          "type": "address"
        },
        {
          "internalType": "address",
          "name": "priceFeed",
          "type": "address"
        }
      ],
      "name": "addSupportedToken",
      "outputs": [],
      "stateMutability": "nonpayable",
      "type": "function"
    },
    {
      "inputs": [],
      "name": "betIdCount",
      "outputs": [
        {
          "internalType": "uint256",
          "name": "",
          "type": "uint256"
        }
      ],
      "stateMutability": "view",
      "type": "function"
    },
    {
      "inputs": [
        {
          "internalType": "uint256",
          "name": "",
          "type": "uint256"
        }
      ],
      "name": "bets",
      "outputs": [
        {
          "internalType": "address",
          "name": "creator",
          "type": "address"
        },
        {
          "internalType": "address",
          "name": "token",
          "type": "address"
        },
        {
          "internalType": "uint256",
          "name": "amount",
          "type": "uint256"
        },
        {
          "internalType": "uint256",
          "name": "endtime",
          "type": "uint256"
        },
        {
          "internalType": "bool",
          "name": "closed",
          "type": "bool"
        },
        {
          "internalType": "address",
          "name": "winner",
          "type": "address"
        },
        {
          "internalType": "uint256",
          "name": "totalEtherValue",
          "type": "uint256"
        }
      ],
      "stateMutability": "view",
      "type": "function"
    },
    {
      "inputs": [
        {
          "internalType": "address",
          "name": "_token",
          "type": "address"
        },
        {
          "internalType": "uint256",
          "name": "_amount",
          "type": "uint256"
        },
        {
          "internalType": "uint256",
          "name": "_duration",
          "type": "uint256"
        }
      ],
      "name": "createBet",
      "outputs": [],
      "stateMutability": "nonpayable",
      "type": "function"
    },
    {
      "inputs": [
        {
          "internalType": "uint256",
          "name": "_betId",
          "type": "uint256"
        }
      ],
      "name": "endBet",
      "outputs": [],
      "stateMutability": "nonpayable",
      "type": "function"
    },
    {
      "inputs": [],
      "name": "fee",
      "outputs": [
        {
          "internalType": "uint256",
          "name": "",
          "type": "uint256"
        }
      ],
      "stateMutability": "view",
      "type": "function"
    },
    {
      "inputs": [
        {
          "internalType": "uint256",
          "name": "_betId",
          "type": "uint256"
        }
      ],
      "name": "getBetEtherValue",
      "outputs": [
        {
          "internalType": "uint256",
          "name": "etherValue",
          "type": "uint256"
        }
      ],
      "stateMutability": "view",
      "type": "function"
    },
    {
      "inputs": [
        {
          "internalType": "uint256",
          "name": "_betId",
          "type": "uint256"
        }
      ],
      "name": "getBetParticipants",
      "outputs": [
        {
          "internalType": "address[]",
          "name": "",
          "type": "address[]"
        }
      ],
      "stateMutability": "view",
      "type": "function"
    },
    {
      "inputs": [
        {
          "internalType": "uint256",
          "name": "_betId",
          "type": "uint256"
        }
      ],
      "name": "joinBet",
      "outputs": [],
      "stateMutability": "nonpayable",
      "type": "function"
    },
    {
      "inputs": [],
      "name": "owner",
      "outputs": [
        {
          "internalType": "address",
          "name": "",
          "type": "address"
        }
      ],
      "stateMutability": "view",
      "type": "function"
    },
    {
      "inputs": [
        {
          "internalType": "uint256",
          "name": "requestId",
          "type": "uint256"
        },
        {
          "internalType": "uint256[]",
          "name": "randomWords",
          "type": "uint256[]"
        }
      ],
      "name": "rawFulfillRandomWords",
      "outputs": [],
      "stateMutability": "nonpayable",
      "type": "function"
    },
    {
      "inputs": [
        {
          "internalType": "address",
          "name": "token",
          "type": "address"
        }
      ],
      "name": "removeSupportedToken",
      "outputs": [],
      "stateMutability": "nonpayable",
      "type": "function"
    },
    {
      "inputs": [],
      "name": "s_vrfCoordinator",
      "outputs": [
        {
          "internalType": "contract IVRFCoordinatorV2Plus",
          "name": "",
          "type": "address"
        }
      ],
      "stateMutability": "view",
      "type": "function"
    },
    {
      "inputs": [
        {
          "internalType": "uint256",
          "name": "_betId",
          "type": "uint256"
        }
      ],
      "name": "selectWinner",
      "outputs": [],
      "stateMutability": "nonpayable",
      "type": "function"
    },
    {
      "inputs": [
        {
          "internalType": "address",
          "name": "_vrfCoordinator",
          "type": "address"
        }
      ],
      "name": "setCoordinator",
      "outputs": [],
      "stateMutability": "nonpayable",
      "type": "function"
    },
    {
      "inputs": [],
      "name": "slippageTolerance",
      "outputs": [
        {
          "internalType": "uint256",
          "name": "",
          "type": "uint256"
        }
      ],
      "stateMutability": "view",
      "type": "function"
    },
    {
      "inputs": [
        {
          "internalType": "address",
          "name": "",
          "type": "address"
        }
      ],
      "name": "supportedTokens",
      "outputs": [
        {
          "internalType": "bool",
          "name": "",
          "type": "bool"
        }
      ],
      "stateMutability": "view",
      "type": "function"
    },
    {
      "inputs": [
        {
          "internalType": "address",
          "name": "",
          "type": "address"
        }
      ],
      "name": "tokenPriceFeeds",
      "outputs": [
        {
          "internalType": "address",
          "name": "",
          "type": "address"
        }
      ],
      "stateMutability": "view",
      "type": "function"
    },
    {
      "inputs": [
        {
          "internalType": "address",
          "name": "to",
          "type": "address"
        }
      ],
      "name": "transferOwnership",
      "outputs": [],
      "stateMutability": "nonpayable",
      "type": "function"
    },
    {
      "inputs": [],
      "name": "uniswapRouter",
      "outputs": [
        {
          "internalType": "contract IUniswapV2Router02",
          "name": "",
          "type": "address"
        }
      ],
      "stateMutability": "view",
      "type": "function"
    },
    {
      "inputs": [
        {
          "internalType": "uint256",
          "name": "",
          "type": "uint256"
        }
      ],
      "name": "vrfRequestToBetId",
      "outputs": [
        {
          "internalType": "uint256",
          "name": "",
          "type": "uint256"
        }
      ],
      "stateMutability": "view",
      "type": "function"
    },
    {
      "stateMutability": "payable",
      "type": "receive"
    }
  ],
  "bytecode": "0x610100604052600160045561012c60065534801561001c57600080fd5b5060405161546a38038061546a833981810160405281019061003e9190610485565b84338060006001600081905550600073ffffffffffffffffffffffffffffffffffffffff168273ffffffffffffffffffffffffffffffffffffffff16036100ba576040517f08c379a00000000000000000000000000000000000000000000000000000000081526004016100b19061055d565b60405180910390fd5b81600160006101000a81548173ffffffffffffffffffffffffffffffffffffffff021916908373ffffffffffffffffffffffffffffffffffffffff160217905550600073ffffffffffffffffffffffffffffffffffffffff168173ffffffffffffffffffffffffffffffffffffffff161461013f5761013e8161024c60201b60201c565b5b505050600073ffffffffffffffffffffffffffffffffffffffff168173ffffffffffffffffffffffffffffffffffffffff16036101a8576040517fd92e233d00000000000000000000000000000000000000000000000000000000815260040160405180910390fd5b80600360006101000a81548173ffffffffffffffffffffffffffffffffffffffff021916908373ffffffffffffffffffffffffffffffffffffffff1602179055505083608081815250508260a081815250508163ffffffff1660c08163ffffffff16815250508073ffffffffffffffffffffffffffffffffffffffff1660e08173ffffffffffffffffffffffffffffffffffffffff168152505050505050506105e9565b3373ffffffffffffffffffffffffffffffffffffffff168173ffffffffffffffffffffffffffffffffffffffff16036102ba576040517f08c379a00000000000000000000000000000000000000000000000000000000081526004016102b1906105c9565b60405180910390fd5b80600260006101000a81548173ffffffffffffffffffffffffffffffffffffffff021916908373ffffffffffffffffffffffffffffffffffffffff1602179055508073ffffffffffffffffffffffffffffffffffffffff16600160009054906101000a900473ffffffffffffffffffffffffffffffffffffffff1673ffffffffffffffffffffffffffffffffffffffff167fed8889f560326eb138920d842192f0eb3dd22b4f139c87a2c57538e05bae127860405160405180910390a350565b600080fd5b600073ffffffffffffffffffffffffffffffffffffffff82169050919050565b60006103aa8261037f565b9050919050565b6103ba8161039f565b81146103c557600080fd5b50565b6000815190506103d7816103b1565b92915050565b6000819050919050565b6103f0816103dd565b81146103fb57600080fd5b50565b60008151905061040d816103e7565b92915050565b6000819050919050565b61042681610413565b811461043157600080fd5b50565b6000815190506104438161041d565b92915050565b600063ffffffff82169050919050565b61046281610449565b811461046d57600080fd5b50565b60008151905061047f81610459565b92915050565b600080600080600060a086880312156104a1576104a061037a565b5b60006104af888289016103c8565b95505060206104c0888289016103fe565b94505060406104d188828901610434565b93505060606104e288828901610470565b92505060806104f3888289016103c8565b9150509295509295909350565b600082825260208201905092915050565b7f43616e6e6f7420736574206f776e657220746f207a65726f0000000000000000600082015250565b6000610547601883610500565b915061055282610511565b602082019050919050565b600060208201905081810360008301526105768161053a565b9050919050565b7f43616e6e6f74207472616e7366657220746f2073656c66000000000000000000600082015250565b60006105b3601783610500565b91506105be8261057d565b602082019050919050565b600060208201905081810360008301526105e2816105a6565b9050919050565b60805160a05160c05160e051614e2c61063e6000396000818161125201528181612518015281816125fd015281816126dc01526127d001526000611128015260006110d1015260006110f70152614e2c6000f3fe6080604052600436106101395760003560e01c80639eccacf6116100ab578063d03153aa1161006f578063d03153aa14610416578063d1c8882a14610441578063ddca3f431461046c578063dfb9546214610497578063f2fde38b146104d4578063f92eb6f2146104fd5761013a565b80639eccacf61461031f578063bd9c47e31461034a578063c2b7be1614610387578063c5684099146103b0578063cdfdb089146103ed5761013a565b806368c4ac26116100fd57806368c4ac2614610223578063735de9f714610260578063763191901461028b57806379ba5097146102b45780638da5cb5b146102cb5780638ea98117146102f65761013a565b8063020de5c71461013c5780631fe543e31461016557806322af00fa1461018e57806339fb3f45146101d15780634c524be4146101fa5761013a565b5b005b34801561014857600080fd5b50610163600480360381019061015e9190612ff8565b61053a565b005b34801561017157600080fd5b5061018c600480360381019061018791906130b0565b6107a0565b005b34801561019a57600080fd5b506101b560048036038101906101b09190613110565b610866565b6040516101c89796959493929190613176565b60405180910390f35b3480156101dd57600080fd5b506101f860048036038101906101f39190613110565b610915565b005b34801561020657600080fd5b50610221600480360381019061021c9190613110565b610dcb565b005b34801561022f57600080fd5b5061024a600480360381019061024591906131e5565b611230565b6040516102579190613212565b60405180910390f35b34801561026c57600080fd5b50610275611250565b604051610282919061328c565b60405180910390f35b34801561029757600080fd5b506102b260048036038101906102ad91906131e5565b611274565b005b3480156102c057600080fd5b506102c9611363565b005b3480156102d757600080fd5b506102e06114fa565b6040516102ed91906132a7565b60405180910390f35b34801561030257600080fd5b5061031d600480360381019061031891906131e5565b611524565b005b34801561032b57600080fd5b50610334611705565b60405161034191906132e3565b60405180910390f35b34801561035657600080fd5b50610371600480360381019061036c91906131e5565b61172b565b60405161037e91906132a7565b60405180910390f35b34801561039357600080fd5b506103ae60048036038101906103a991906132fe565b61175e565b005b3480156103bc57600080fd5b506103d760048036038101906103d29190613110565b6119ab565b6040516103e491906133fc565b60405180910390f35b3480156103f957600080fd5b50610414600480360381019061040f9190613110565b611a4f565b005b34801561042257600080fd5b5061042b611d80565b604051610438919061341e565b60405180910390f35b34801561044d57600080fd5b50610456611d86565b604051610463919061341e565b60405180910390f35b34801561047857600080fd5b50610481611d8c565b60405161048e919061341e565b60405180910390f35b3480156104a357600080fd5b506104be60048036038101906104b99190613110565b611d92565b6040516104cb919061341e565b60405180910390f35b3480156104e057600080fd5b506104fb60048036038101906104f691906131e5565b611daa565b005b34801561050957600080fd5b50610524600480360381019061051f9190613110565b611dbe565b604051610531919061341e565b60405180910390f35b6000821161057d576040517f08c379a0000000000000000000000000000000000000000000000000000000008152600401610574906134bc565b60405180910390fd5b600081116105c0576040517f08c379a00000000000000000000000000000000000000000000000000000000081526004016105b79061354e565b60405180910390fd5b600860008473ffffffffffffffffffffffffffffffffffffffff1673ffffffffffffffffffffffffffffffffffffffff16815260200190815260200160002060009054906101000a900460ff1661064c576040517f08c379a0000000000000000000000000000000000000000000000000000000008152600401610643906135ba565b60405180910390fd5b6005600081548092919061065f90613609565b9190505550600060055490506000600760008381526020019081526020016000209050338160000160006101000a81548173ffffffffffffffffffffffffffffffffffffffff021916908373ffffffffffffffffffffffffffffffffffffffff160217905550848160010160006101000a81548173ffffffffffffffffffffffffffffffffffffffff021916908373ffffffffffffffffffffffffffffffffffffffff160217905550838160020181905550824261071d9190613651565b816003018190555060008160040160006101000a81548160ff0219169083151502179055503373ffffffffffffffffffffffffffffffffffffffff16827fb1d7bacd770604b85127593c65bb407cfd28bc2c88214836012879c0832e20348787856003015460405161079193929190613685565b60405180910390a35050505050565b600360009054906101000a900473ffffffffffffffffffffffffffffffffffffffff1673ffffffffffffffffffffffffffffffffffffffff163373ffffffffffffffffffffffffffffffffffffffff16146108565733600360009054906101000a900473ffffffffffffffffffffffffffffffffffffffff166040517f1cf993f400000000000000000000000000000000000000000000000000000000815260040161084d9291906136bc565b60405180910390fd5b610861838383611ead565b505050565b60076020528060005260406000206000915090508060000160009054906101000a900473ffffffffffffffffffffffffffffffffffffffff16908060010160009054906101000a900473ffffffffffffffffffffffffffffffffffffffff16908060020154908060030154908060040160009054906101000a900460ff16908060040160019054906101000a900473ffffffffffffffffffffffffffffffffffffffff16908060060154905087565b61091d612297565b6000600760008381526020019081526020016000209050600073ffffffffffffffffffffffffffffffffffffffff168160000160009054906101000a900473ffffffffffffffffffffffffffffffffffffffff1673ffffffffffffffffffffffffffffffffffffffff16036109c7576040517f08c379a00000000000000000000000000000000000000000000000000000000081526004016109be90613731565b60405180910390fd5b8060040160009054906101000a900460ff1615610a19576040517f08c379a0000000000000000000000000000000000000000000000000000000008152600401610a109061379d565b60405180910390fd5b80600301544210610a5f576040517f08c379a0000000000000000000000000000000000000000000000000000000008152600401610a5690613809565b60405180910390fd5b60005b8160050180549050811015610b2c573373ffffffffffffffffffffffffffffffffffffffff16826005018281548110610a9e57610a9d613829565b5b9060005260206000200160009054906101000a900473ffffffffffffffffffffffffffffffffffffffff1673ffffffffffffffffffffffffffffffffffffffff1603610b1f576040517f08c379a0000000000000000000000000000000000000000000000000000000008152600401610b16906138ca565b60405180910390fd5b8080600101915050610a62565b5060008160010160009054906101000a900473ffffffffffffffffffffffffffffffffffffffff16905060008173ffffffffffffffffffffffffffffffffffffffff166370a08231336040518263ffffffff1660e01b8152600401610b9191906132a7565b602060405180830381865afa158015610bae573d6000803e3d6000fd5b505050506040513d601f19601f82011682018060405250810190610bd291906138ff565b905060008273ffffffffffffffffffffffffffffffffffffffff1663dd62ed3e33306040518363ffffffff1660e01b8152600401610c119291906136bc565b602060405180830381865afa158015610c2e573d6000803e3d6000fd5b505050506040513d601f19601f82011682018060405250810190610c5291906138ff565b90508360020154821015610c9b576040517f08c379a0000000000000000000000000000000000000000000000000000000008152600401610c9290613978565b60405180910390fd5b8360020154811015610ce2576040517f08c379a0000000000000000000000000000000000000000000000000000000008152600401610cd9906139e4565b60405180910390fd5b610d13333086600201548673ffffffffffffffffffffffffffffffffffffffff166122dd909392919063ffffffff16565b83600501339080600181540180825580915050600190039060005260206000200160009091909190916101000a81548173ffffffffffffffffffffffffffffffffffffffff021916908373ffffffffffffffffffffffffffffffffffffffff1602179055503373ffffffffffffffffffffffffffffffffffffffff16857f7f737563bc6765fe3374430df34adffc917ae44d5f183880c1331e558185d0e160405160405180910390a350505050610dc861235f565b50565b610dd3612297565b6000600760008381526020019081526020016000209050600073ffffffffffffffffffffffffffffffffffffffff168160000160009054906101000a900473ffffffffffffffffffffffffffffffffffffffff1673ffffffffffffffffffffffffffffffffffffffff1603610e7d576040517f08c379a0000000000000000000000000000000000000000000000000000000008152600401610e7490613731565b60405180910390fd5b8060000160009054906101000a900473ffffffffffffffffffffffffffffffffffffffff1673ffffffffffffffffffffffffffffffffffffffff163373ffffffffffffffffffffffffffffffffffffffff1614610f0f576040517f08c379a0000000000000000000000000000000000000000000000000000000008152600401610f0690613a76565b60405180910390fd5b8060040160009054906101000a900460ff16610f60576040517f08c379a0000000000000000000000000000000000000000000000000000000008152600401610f5790613ae2565b60405180910390fd5b600073ffffffffffffffffffffffffffffffffffffffff168160040160019054906101000a900473ffffffffffffffffffffffffffffffffffffffff1673ffffffffffffffffffffffffffffffffffffffff1614610ff3576040517f08c379a0000000000000000000000000000000000000000000000000000000008152600401610fea90613b4e565b60405180910390fd5b600081600501805490501161103d576040517f08c379a000000000000000000000000000000000000000000000000000000000815260040161103490613bba565b60405180910390fd5b6000816006015411611084576040517f08c379a000000000000000000000000000000000000000000000000000000000815260040161107b90613c4c565b60405180910390fd5b6000600360009054906101000a900473ffffffffffffffffffffffffffffffffffffffff1673ffffffffffffffffffffffffffffffffffffffff16639b1c385e6040518060c001604052807f000000000000000000000000000000000000000000000000000000000000000081526020017f00000000000000000000000000000000000000000000000000000000000000008152602001600361ffff1681526020017f000000000000000000000000000000000000000000000000000000000000000063ffffffff168152602001600163ffffffff168152602001611179604051806020016040528060011515815250612369565b8152506040518263ffffffff1660e01b81526004016111989190613de9565b6020604051808303816000875af11580156111b7573d6000803e3d6000fd5b505050506040513d601f19601f820116820180604052508101906111db91906138ff565b905082600a60008381526020019081526020016000208190555080837f708691262b677612d65fe057f7788158f3bfedcc25f9d7b50adaa889b0048ace60405160405180910390a3505061122d61235f565b50565b60086020528060005260406000206000915054906101000a900460ff1681565b7f000000000000000000000000000000000000000000000000000000000000000081565b61127c612401565b600860008273ffffffffffffffffffffffffffffffffffffffff1673ffffffffffffffffffffffffffffffffffffffff16815260200190815260200160002060009054906101000a900460ff16611308576040517f08c379a00000000000000000000000000000000000000000000000000000000081526004016112ff90613e57565b60405180910390fd5b6000600860008373ffffffffffffffffffffffffffffffffffffffff1673ffffffffffffffffffffffffffffffffffffffff16815260200190815260200160002060006101000a81548160ff02191690831515021790555050565b600260009054906101000a900473ffffffffffffffffffffffffffffffffffffffff1673ffffffffffffffffffffffffffffffffffffffff163373ffffffffffffffffffffffffffffffffffffffff16146113f3576040517f08c379a00000000000000000000000000000000000000000000000000000000081526004016113ea90613ec3565b60405180910390fd5b6000600160009054906101000a900473ffffffffffffffffffffffffffffffffffffffff16905033600160006101000a81548173ffffffffffffffffffffffffffffffffffffffff021916908373ffffffffffffffffffffffffffffffffffffffff1602179055506000600260006101000a81548173ffffffffffffffffffffffffffffffffffffffff021916908373ffffffffffffffffffffffffffffffffffffffff1602179055503373ffffffffffffffffffffffffffffffffffffffff168173ffffffffffffffffffffffffffffffffffffffff167f8be0079c531659141344cd1fd0a4f28419497f9722a3daafe3b4186f6b6457e060405160405180910390a350565b6000600160009054906101000a900473ffffffffffffffffffffffffffffffffffffffff16905090565b61152c6114fa565b73ffffffffffffffffffffffffffffffffffffffff163373ffffffffffffffffffffffffffffffffffffffff16141580156115b55750600360009054906101000a900473ffffffffffffffffffffffffffffffffffffffff1673ffffffffffffffffffffffffffffffffffffffff163373ffffffffffffffffffffffffffffffffffffffff1614155b1561162457336115c36114fa565b600360009054906101000a900473ffffffffffffffffffffffffffffffffffffffff166040517f061db9c100000000000000000000000000000000000000000000000000000000815260040161161b93929190613ee3565b60405180910390fd5b600073ffffffffffffffffffffffffffffffffffffffff168173ffffffffffffffffffffffffffffffffffffffff160361168a576040517fd92e233d00000000000000000000000000000000000000000000000000000000815260040160405180910390fd5b80600360006101000a81548173ffffffffffffffffffffffffffffffffffffffff021916908373ffffffffffffffffffffffffffffffffffffffff1602179055507fd1a6a14209a385a964d036e404cb5cfb71f4000cdb03c9366292430787261be6816040516116fa91906132a7565b60405180910390a150565b600360009054906101000a900473ffffffffffffffffffffffffffffffffffffffff1681565b60096020528060005260406000206000915054906101000a900473ffffffffffffffffffffffffffffffffffffffff1681565b611766612401565b600073ffffffffffffffffffffffffffffffffffffffff168273ffffffffffffffffffffffffffffffffffffffff16036117d5576040517f08c379a00000000000000000000000000000000000000000000000000000000081526004016117cc90613f66565b60405180910390fd5b600073ffffffffffffffffffffffffffffffffffffffff168173ffffffffffffffffffffffffffffffffffffffff1603611844576040517f08c379a000000000000000000000000000000000000000000000000000000000815260040161183b90613fd2565b60405180910390fd5b600860008373ffffffffffffffffffffffffffffffffffffffff1673ffffffffffffffffffffffffffffffffffffffff16815260200190815260200160002060009054906101000a900460ff16156118d1576040517f08c379a00000000000000000000000000000000000000000000000000000000081526004016118c89061403e565b60405180910390fd5b6001600860008473ffffffffffffffffffffffffffffffffffffffff1673ffffffffffffffffffffffffffffffffffffffff16815260200190815260200160002060006101000a81548160ff02191690831515021790555080600960008473ffffffffffffffffffffffffffffffffffffffff1673ffffffffffffffffffffffffffffffffffffffff16815260200190815260200160002060006101000a81548173ffffffffffffffffffffffffffffffffffffffff021916908373ffffffffffffffffffffffffffffffffffffffff1602179055505050565b606060076000838152602001908152602001600020600501805480602002602001604051908101604052809291908181526020018280548015611a4357602002820191906000526020600020905b8160009054906101000a900473ffffffffffffffffffffffffffffffffffffffff1673ffffffffffffffffffffffffffffffffffffffff16815260200190600101908083116119f9575b50505050509050919050565b611a57612297565b60006007600083815260200190815260200160002090506000805b8260050180549050811015611b0a573373ffffffffffffffffffffffffffffffffffffffff16836005018281548110611aae57611aad613829565b5b9060005260206000200160009054906101000a900473ffffffffffffffffffffffffffffffffffffffff1673ffffffffffffffffffffffffffffffffffffffff1603611afd5760019150611b0a565b8080600101915050611a72565b508160000160009054906101000a900473ffffffffffffffffffffffffffffffffffffffff1673ffffffffffffffffffffffffffffffffffffffff163373ffffffffffffffffffffffffffffffffffffffff161480611b665750805b611ba5576040517f08c379a0000000000000000000000000000000000000000000000000000000008152600401611b9c906140d0565b60405180910390fd5b600073ffffffffffffffffffffffffffffffffffffffff168260000160009054906101000a900473ffffffffffffffffffffffffffffffffffffffff1673ffffffffffffffffffffffffffffffffffffffff1603611c38576040517f08c379a0000000000000000000000000000000000000000000000000000000008152600401611c2f90613731565b60405180910390fd5b8160040160009054906101000a900460ff1615611c8a576040517f08c379a0000000000000000000000000000000000000000000000000000000008152600401611c819061413c565b60405180910390fd5b81600301544211611cd0576040517f08c379a0000000000000000000000000000000000000000000000000000000008152600401611cc7906141a8565b60405180910390fd5b6000611cdb84612493565b90506000611d0d8460010160009054906101000a900473ffffffffffffffffffffffffffffffffffffffff16836124ca565b905080846006018190555060018460040160006101000a81548160ff021916908315150217905550847f32156e2f00f9aaf2f28c62e902ea3bbc5a0fa451e3aabecffaca0d5931f5d9098560060154604051611d69919061341e565b60405180910390a250505050611d7d61235f565b50565b60065481565b60055481565b60045481565b600a6020528060005260406000206000915090505481565b611db2612401565b611dbb8161289f565b50565b600080600760008481526020019081526020016000209050600073ffffffffffffffffffffffffffffffffffffffff168160000160009054906101000a900473ffffffffffffffffffffffffffffffffffffffff1673ffffffffffffffffffffffffffffffffffffffff1603611e69576040517f08c379a0000000000000000000000000000000000000000000000000000000008152600401611e6090613731565b60405180910390fd5b6000611e7484612493565b9050611ea48260010160009054906101000a900473ffffffffffffffffffffffffffffffffffffffff16826129cd565b92505050919050565b6000600a60008581526020019081526020016000205490506000600760008381526020019081526020016000209050600073ffffffffffffffffffffffffffffffffffffffff168160000160009054906101000a900473ffffffffffffffffffffffffffffffffffffffff1673ffffffffffffffffffffffffffffffffffffffff1603611f6f576040517f08c379a0000000000000000000000000000000000000000000000000000000008152600401611f6690614214565b60405180910390fd5b600073ffffffffffffffffffffffffffffffffffffffff168160040160019054906101000a900473ffffffffffffffffffffffffffffffffffffffff1673ffffffffffffffffffffffffffffffffffffffff1614612002576040517f08c379a0000000000000000000000000000000000000000000000000000000008152600401611ff990613b4e565b60405180910390fd5b6000816006015411612049576040517f08c379a000000000000000000000000000000000000000000000000000000000815260040161204090614280565b60405180910390fd5b6000816005018054905011612093576040517f08c379a000000000000000000000000000000000000000000000000000000000815260040161208a906142ec565b60405180910390fd5b60008160050180549050858560008181106120b1576120b0613829565b5b905060200201356120c2919061433b565b905060008260050182815481106120dc576120db613829565b5b9060005260206000200160009054906101000a900473ffffffffffffffffffffffffffffffffffffffff169050808360040160016101000a81548173ffffffffffffffffffffffffffffffffffffffff021916908373ffffffffffffffffffffffffffffffffffffffff1602179055506000836006015490506000606460045483612167919061436c565b61217191906143ae565b90506000818361218191906143df565b9050600081111561223a5760008473ffffffffffffffffffffffffffffffffffffffff16826040516121b290614444565b60006040518083038185875af1925050503d80600081146121ef576040519150601f19603f3d011682016040523d82523d6000602084013e6121f4565b606091505b5050905080612238576040517f08c379a000000000000000000000000000000000000000000000000000000000815260040161222f906144a5565b60405180910390fd5b505b8373ffffffffffffffffffffffffffffffffffffffff16877f3d210d5ae36955ded2bdf69bd956eb075b7fd07362288c7df1797cd8eb1199bf83856040516122839291906144c5565b60405180910390a350505050505050505050565b6002600054036122d3576040517f3ee5aeb500000000000000000000000000000000000000000000000000000000815260040160405180910390fd5b6002600081905550565b612359848573ffffffffffffffffffffffffffffffffffffffff166323b872dd868686604051602401612312939291906144ee565b604051602081830303815290604052915060e01b6020820180517bffffffffffffffffffffffffffffffffffffffffffffffffffffffff8381831617835250505050612d3f565b50505050565b6001600081905550565b60607f92fd13387c7fe7befbc38d303d6468778fb9731bc4583f17d92989c6fcfdeaaa8260405160240161239d9190614550565b604051602081830303815290604052907bffffffffffffffffffffffffffffffffffffffffffffffffffffffff19166020820180517bffffffffffffffffffffffffffffffffffffffffffffffffffffffff83818316178352505050509050919050565b600160009054906101000a900473ffffffffffffffffffffffffffffffffffffffff1673ffffffffffffffffffffffffffffffffffffffff163373ffffffffffffffffffffffffffffffffffffffff1614612491576040517f08c379a0000000000000000000000000000000000000000000000000000000008152600401612488906145b7565b60405180910390fd5b565b600080600760008481526020019081526020016000209050806005018054905081600201546124c2919061436c565b915050919050565b600080821161250e576040517f08c379a000000000000000000000000000000000000000000000000000000000815260040161250590614649565b60405180910390fd5b600083905061255e7f0000000000000000000000000000000000000000000000000000000000000000848373ffffffffffffffffffffffffffffffffffffffff16612de19092919063ffffffff16565b6000600267ffffffffffffffff81111561257b5761257a614669565b5b6040519080825280602002602001820160405280156125a95781602001602082028036833780820191505090505b50905084816000815181106125c1576125c0613829565b5b602002602001019073ffffffffffffffffffffffffffffffffffffffff16908173ffffffffffffffffffffffffffffffffffffffff16815250507f000000000000000000000000000000000000000000000000000000000000000073ffffffffffffffffffffffffffffffffffffffff1663ad5c46486040518163ffffffff1660e01b8152600401602060405180830381865afa158015612666573d6000803e3d6000fd5b505050506040513d601f19601f8201168201806040525081019061268a91906146ad565b8160018151811061269e5761269d613829565b5b602002602001019073ffffffffffffffffffffffffffffffffffffffff16908173ffffffffffffffffffffffffffffffffffffffff168152505060007f000000000000000000000000000000000000000000000000000000000000000073ffffffffffffffffffffffffffffffffffffffff1663d06ca61f86846040518363ffffffff1660e01b81526004016127359291906146da565b600060405180830381865afa158015612752573d6000803e3d6000fd5b505050506040513d6000823e3d601f19601f8201168201806040525081019061277b9190614819565b905060008160018151811061279357612792613829565b5b6020026020010151905060006127106006546127106127b291906143df565b836127bd919061436c565b6127c791906143ae565b905060004790507f000000000000000000000000000000000000000000000000000000000000000073ffffffffffffffffffffffffffffffffffffffff166318cbafe58984883061012c4261281c9190613651565b6040518663ffffffff1660e01b815260040161283c959493929190614862565b6000604051808303816000875af115801561285b573d6000803e3d6000fd5b505050506040513d6000823e3d601f19601f820116820180604052508101906128849190614819565b50804761289191906143df565b965050505050505092915050565b3373ffffffffffffffffffffffffffffffffffffffff168173ffffffffffffffffffffffffffffffffffffffff160361290d576040517f08c379a000000000000000000000000000000000000000000000000000000000815260040161290490614908565b60405180910390fd5b80600260006101000a81548173ffffffffffffffffffffffffffffffffffffffff021916908373ffffffffffffffffffffffffffffffffffffffff1602179055508073ffffffffffffffffffffffffffffffffffffffff16600160009054906101000a900473ffffffffffffffffffffffffffffffffffffffff1673ffffffffffffffffffffffffffffffffffffffff167fed8889f560326eb138920d842192f0eb3dd22b4f139c87a2c57538e05bae127860405160405180910390a350565b60008073ffffffffffffffffffffffffffffffffffffffff16600960008573ffffffffffffffffffffffffffffffffffffffff1673ffffffffffffffffffffffffffffffffffffffff16815260200190815260200160002060009054906101000a900473ffffffffffffffffffffffffffffffffffffffff1673ffffffffffffffffffffffffffffffffffffffff1603612a9c576040517f08c379a0000000000000000000000000000000000000000000000000000000008152600401612a939061499a565b60405180910390fd5b6000600960008573ffffffffffffffffffffffffffffffffffffffff1673ffffffffffffffffffffffffffffffffffffffff16815260200190815260200160002060009054906101000a900473ffffffffffffffffffffffffffffffffffffffff1690506000808273ffffffffffffffffffffffffffffffffffffffff1663feaf968c6040518163ffffffff1660e01b815260040160a060405180830381865afa158015612b4e573d6000803e3d6000fd5b505050506040513d601f19601f82011682018060405250810190612b729190614a32565b5093505092505060008213612bbc576040517f08c379a0000000000000000000000000000000000000000000000000000000008152600401612bb390614af9565b60405180910390fd5b60008111612bff576040517f08c379a0000000000000000000000000000000000000000000000000000000008152600401612bf690614b65565b60405180910390fd5b60008673ffffffffffffffffffffffffffffffffffffffff1663313ce5676040518163ffffffff1660e01b8152600401602060405180830381865afa158015612c4c573d6000803e3d6000fd5b505050506040513d601f19601f82011682018060405250810190612c709190614bbe565b905060008473ffffffffffffffffffffffffffffffffffffffff1663313ce5676040518163ffffffff1660e01b8152600401602060405180830381865afa158015612cbf573d6000803e3d6000fd5b505050506040513d601f19601f82011682018060405250810190612ce39190614bbe565b905080600a612cf29190614d1e565b82600a612cff9190614d1e565b612d09919061436c565b670de0b6b3a76400008589612d1e919061436c565b612d28919061436c565b612d3291906143ae565b9550505050505092915050565b600080602060008451602086016000885af180612d62576040513d6000823e3d81fd5b3d925060005191505060008214612d7d576001811415612d99565b60008473ffffffffffffffffffffffffffffffffffffffff163b145b15612ddb57836040517f5274afe7000000000000000000000000000000000000000000000000000000008152600401612dd291906132a7565b60405180910390fd5b50505050565b60008373ffffffffffffffffffffffffffffffffffffffff1663095ea7b38484604051602401612e12929190614d69565b604051602081830303815290604052915060e01b6020820180517bffffffffffffffffffffffffffffffffffffffffffffffffffffffff83818316178352505050509050612e608482612ef0565b612eea57612edf848573ffffffffffffffffffffffffffffffffffffffff1663095ea7b3866000604051602401612e98929190614dcd565b604051602081830303815290604052915060e01b6020820180517bffffffffffffffffffffffffffffffffffffffffffffffffffffffff8381831617835250505050612d3f565b612ee98482612d3f565b5b50505050565b6000806000806020600086516020880160008a5af192503d91506000519050828015612f45575060008214612f285760018114612f44565b60008673ffffffffffffffffffffffffffffffffffffffff163b115b5b935050505092915050565b6000604051905090565b600080fd5b600080fd5b600073ffffffffffffffffffffffffffffffffffffffff82169050919050565b6000612f8f82612f64565b9050919050565b612f9f81612f84565b8114612faa57600080fd5b50565b600081359050612fbc81612f96565b92915050565b6000819050919050565b612fd581612fc2565b8114612fe057600080fd5b50565b600081359050612ff281612fcc565b92915050565b60008060006060848603121561301157613010612f5a565b5b600061301f86828701612fad565b935050602061303086828701612fe3565b925050604061304186828701612fe3565b9150509250925092565b600080fd5b600080fd5b600080fd5b60008083601f8401126130705761306f61304b565b5b8235905067ffffffffffffffff81111561308d5761308c613050565b5b6020830191508360208202830111156130a9576130a8613055565b5b9250929050565b6000806000604084860312156130c9576130c8612f5a565b5b60006130d786828701612fe3565b935050602084013567ffffffffffffffff8111156130f8576130f7612f5f565b5b6131048682870161305a565b92509250509250925092565b60006020828403121561312657613125612f5a565b5b600061313484828501612fe3565b91505092915050565b61314681612f84565b82525050565b61315581612fc2565b82525050565b60008115159050919050565b6131708161315b565b82525050565b600060e08201905061318b600083018a61313d565b613198602083018961313d565b6131a5604083018861314c565b6131b2606083018761314c565b6131bf6080830186613167565b6131cc60a083018561313d565b6131d960c083018461314c565b98975050505050505050565b6000602082840312156131fb576131fa612f5a565b5b600061320984828501612fad565b91505092915050565b60006020820190506132276000830184613167565b92915050565b6000819050919050565b600061325261324d61324884612f64565b61322d565b612f64565b9050919050565b600061326482613237565b9050919050565b600061327682613259565b9050919050565b6132868161326b565b82525050565b60006020820190506132a1600083018461327d565b92915050565b60006020820190506132bc600083018461313d565b92915050565b60006132cd82613259565b9050919050565b6132dd816132c2565b82525050565b60006020820190506132f860008301846132d4565b92915050565b6000806040838503121561331557613314612f5a565b5b600061332385828601612fad565b925050602061333485828601612fad565b9150509250929050565b600081519050919050565b600082825260208201905092915050565b6000819050602082019050919050565b61337381612f84565b82525050565b6000613385838361336a565b60208301905092915050565b6000602082019050919050565b60006133a98261333e565b6133b38185613349565b93506133be8361335a565b8060005b838110156133ef5781516133d68882613379565b97506133e183613391565b9250506001810190506133c2565b5085935050505092915050565b60006020820190508181036000830152613416818461339e565b905092915050565b6000602082019050613433600083018461314c565b92915050565b600082825260208201905092915050565b7f42657420616d6f756e74206d7573742062652067726561746572207468616e2060008201527f7a65726f00000000000000000000000000000000000000000000000000000000602082015250565b60006134a6602483613439565b91506134b18261344a565b604082019050919050565b600060208201905081810360008301526134d581613499565b9050919050565b7f4475726174696f6e206d7573742062652067726561746572207468616e207a6560008201527f726f000000000000000000000000000000000000000000000000000000000000602082015250565b6000613538602283613439565b9150613543826134dc565b604082019050919050565b600060208201905081810360008301526135678161352b565b9050919050565b7f546f6b656e206e6f7420737570706f727465642e000000000000000000000000600082015250565b60006135a4601483613439565b91506135af8261356e565b602082019050919050565b600060208201905081810360008301526135d381613597565b9050919050565b7f4e487b7100000000000000000000000000000000000000000000000000000000600052601160045260246000fd5b600061361482612fc2565b91507fffffffffffffffffffffffffffffffffffffffffffffffffffffffffffffffff8203613646576136456135da565b5b600182019050919050565b600061365c82612fc2565b915061366783612fc2565b925082820190508082111561367f5761367e6135da565b5b92915050565b600060608201905061369a600083018661313d565b6136a7602083018561314c565b6136b4604083018461314c565b949350505050565b60006040820190506136d1600083018561313d565b6136de602083018461313d565b9392505050565b7f42657420646f6573206e6f742065786973740000000000000000000000000000600082015250565b600061371b601283613439565b9150613726826136e5565b602082019050919050565b6000602082019050818103600083015261374a8161370e565b9050919050565b7f42657420697320636c6f7365642e000000000000000000000000000000000000600082015250565b6000613787600e83613439565b915061379282613751565b602082019050919050565b600060208201905081810360008301526137b68161377a565b9050919050565b7f426574206475726174696f6e2068617320657870697265640000000000000000600082015250565b60006137f3601883613439565b91506137fe826137bd565b602082019050919050565b60006020820190508181036000830152613822816137e6565b9050919050565b7f4e487b7100000000000000000000000000000000000000000000000000000000600052603260045260246000fd5b7f596f75206861766520616c7265616479206a6f696e656420746869732062657460008201527f2e00000000000000000000000000000000000000000000000000000000000000602082015250565b60006138b4602183613439565b91506138bf82613858565b604082019050919050565b600060208201905081810360008301526138e3816138a7565b9050919050565b6000815190506138f981612fcc565b92915050565b60006020828403121561391557613914612f5a565b5b6000613923848285016138ea565b91505092915050565b7f496e73756666696369656e7420746f6b656e2062616c616e6365000000000000600082015250565b6000613962601a83613439565b915061396d8261392c565b602082019050919050565b6000602082019050818103600083015261399181613955565b9050919050565b7f496e73756666696369656e7420746f6b656e20616c6c6f77616e636500000000600082015250565b60006139ce601c83613439565b91506139d982613998565b602082019050919050565b600060208201905081810360008301526139fd816139c1565b9050919050565b7f4f6e6c79206265742063726561746f722063616e2073656c6563742077696e6e60008201527f6572000000000000000000000000000000000000000000000000000000000000602082015250565b6000613a60602283613439565b9150613a6b82613a04565b604082019050919050565b60006020820190508181036000830152613a8f81613a53565b9050919050565b7f426574206d75737420626520636c6f7365642066697273740000000000000000600082015250565b6000613acc601883613439565b9150613ad782613a96565b602082019050919050565b60006020820190508181036000830152613afb81613abf565b9050919050565b7f57696e6e657220616c72656164792073656c6563746564000000000000000000600082015250565b6000613b38601783613439565b9150613b4382613b02565b602082019050919050565b60006020820190508181036000830152613b6781613b2b565b9050919050565b7f4e6f207061727469636970616e747320696e2062657400000000000000000000600082015250565b6000613ba4601683613439565b9150613baf82613b6e565b602082019050919050565b60006020820190508181036000830152613bd381613b97565b9050919050565b7f4e6f2045544820617661696c61626c6520666f7220646973747269627574696f60008201527f6e00000000000000000000000000000000000000000000000000000000000000602082015250565b6000613c36602183613439565b9150613c4182613bda565b604082019050919050565b60006020820190508181036000830152613c6581613c29565b9050919050565b6000819050919050565b613c7f81613c6c565b82525050565b613c8e81612fc2565b82525050565b600061ffff82169050919050565b613cab81613c94565b82525050565b600063ffffffff82169050919050565b613cca81613cb1565b82525050565b600081519050919050565b600082825260208201905092915050565b60005b83811015613d0a578082015181840152602081019050613cef565b60008484015250505050565b6000601f19601f8301169050919050565b6000613d3282613cd0565b613d3c8185613cdb565b9350613d4c818560208601613cec565b613d5581613d16565b840191505092915050565b600060c083016000830151613d786000860182613c76565b506020830151613d8b6020860182613c85565b506040830151613d9e6040860182613ca2565b506060830151613db16060860182613cc1565b506080830151613dc46080860182613cc1565b5060a083015184820360a0860152613ddc8282613d27565b9150508091505092915050565b60006020820190508181036000830152613e038184613d60565b905092915050565b7f546f6b656e20616c726561647920756e737570706f727465642e000000000000600082015250565b6000613e41601a83613439565b9150613e4c82613e0b565b602082019050919050565b60006020820190508181036000830152613e7081613e34565b9050919050565b7f4d7573742062652070726f706f736564206f776e657200000000000000000000600082015250565b6000613ead601683613439565b9150613eb882613e77565b602082019050919050565b60006020820190508181036000830152613edc81613ea0565b9050919050565b6000606082019050613ef8600083018661313d565b613f05602083018561313d565b613f12604083018461313d565b949350505050565b7f496e76616c696420746f6b656e20616464726573730000000000000000000000600082015250565b6000613f50601583613439565b9150613f5b82613f1a565b602082019050919050565b60006020820190508181036000830152613f7f81613f43565b9050919050565b7f496e76616c696420707269636520666565642061646472657373000000000000600082015250565b6000613fbc601a83613439565b9150613fc782613f86565b602082019050919050565b60006020820190508181036000830152613feb81613faf565b9050919050565b7f546f6b656e20616c726561647920737570706f727465642e0000000000000000600082015250565b6000614028601883613439565b915061403382613ff2565b602082019050919050565b600060208201905081810360008301526140578161401b565b9050919050565b7f4f6e6c79204265742063726561746f72206f72207061727469636970616e742060008201527f63616e20636c6f73652074686973206265740000000000000000000000000000602082015250565b60006140ba603283613439565b91506140c58261405e565b604082019050919050565b600060208201905081810360008301526140e9816140ad565b9050919050565b7f42657420697320616c726561647920636c6f7365642e00000000000000000000600082015250565b6000614126601683613439565b9150614131826140f0565b602082019050919050565b6000602082019050818103600083015261415581614119565b9050919050565b7f54686520426574206475726174696f6e206e6f7420656e646564206e6f772e00600082015250565b6000614192601f83613439565b915061419d8261415c565b602082019050919050565b600060208201905081810360008301526141c181614185565b9050919050565b7f496e76616c696420626574000000000000000000000000000000000000000000600082015250565b60006141fe600b83613439565b9150614209826141c8565b602082019050919050565b6000602082019050818103600083015261422d816141f1565b9050919050565b7f546f6b656e73206e6f74207377617070656420746f2045544800000000000000600082015250565b600061426a601983613439565b915061427582614234565b602082019050919050565b600060208201905081810360008301526142998161425d565b9050919050565b7f4e6f207061727469636970616e74730000000000000000000000000000000000600082015250565b60006142d6600f83613439565b91506142e1826142a0565b602082019050919050565b60006020820190508181036000830152614305816142c9565b9050919050565b7f4e487b7100000000000000000000000000000000000000000000000000000000600052601260045260246000fd5b600061434682612fc2565b915061435183612fc2565b9250826143615761436061430c565b5b828206905092915050565b600061437782612fc2565b915061438283612fc2565b925082820261439081612fc2565b915082820484148315176143a7576143a66135da565b5b5092915050565b60006143b982612fc2565b91506143c483612fc2565b9250826143d4576143d361430c565b5b828204905092915050565b60006143ea82612fc2565b91506143f583612fc2565b925082820390508181111561440d5761440c6135da565b5b92915050565b600081905092915050565b50565b600061442e600083614413565b91506144398261441e565b600082019050919050565b600061444f82614421565b9150819050919050565b7f455448207472616e7366657220746f2077696e6e6572206661696c6564000000600082015250565b600061448f601d83613439565b915061449a82614459565b602082019050919050565b600060208201905081810360008301526144be81614482565b9050919050565b60006040820190506144da600083018561314c565b6144e7602083018461314c565b9392505050565b6000606082019050614503600083018661313d565b614510602083018561313d565b61451d604083018461314c565b949350505050565b61452e8161315b565b82525050565b60208201600082015161454a6000850182614525565b50505050565b60006020820190506145656000830184614534565b92915050565b7f4f6e6c792063616c6c61626c65206279206f776e657200000000000000000000600082015250565b60006145a1601683613439565b91506145ac8261456b565b602082019050919050565b600060208201905081810360008301526145d081614594565b9050919050565b7f546f6b656e20616d6f756e74206d75737420626520677265617465722074686160008201527f6e207a65726f0000000000000000000000000000000000000000000000000000602082015250565b6000614633602683613439565b915061463e826145d7565b604082019050919050565b6000602082019050818103600083015261466281614626565b9050919050565b7f4e487b7100000000000000000000000000000000000000000000000000000000600052604160045260246000fd5b6000815190506146a781612f96565b92915050565b6000602082840312156146c3576146c2612f5a565b5b60006146d184828501614698565b91505092915050565b60006040820190506146ef600083018561314c565b8181036020830152614701818461339e565b90509392505050565b61471382613d16565b810181811067ffffffffffffffff8211171561473257614731614669565b5b80604052505050565b6000614745612f50565b9050614751828261470a565b919050565b600067ffffffffffffffff82111561477157614770614669565b5b602082029050602081019050919050565b600061479561479084614756565b61473b565b905080838252602082019050602084028301858111156147b8576147b7613055565b5b835b818110156147e157806147cd88826138ea565b8452602084019350506020810190506147ba565b5050509392505050565b600082601f830112614800576147ff61304b565b5b8151614810848260208601614782565b91505092915050565b60006020828403121561482f5761482e612f5a565b5b600082015167ffffffffffffffff81111561484d5761484c612f5f565b5b614859848285016147eb565b91505092915050565b600060a082019050614877600083018861314c565b614884602083018761314c565b8181036040830152614896818661339e565b90506148a5606083018561313d565b6148b2608083018461314c565b9695505050505050565b7f43616e6e6f74207472616e7366657220746f2073656c66000000000000000000600082015250565b60006148f2601783613439565b91506148fd826148bc565b602082019050919050565b60006020820190508181036000830152614921816148e5565b9050919050565b7f50726963652066656564206e6f7420617661696c61626c6520666f7220746f6b60008201527f656e000000000000000000000000000000000000000000000000000000000000602082015250565b6000614984602283613439565b915061498f82614928565b604082019050919050565b600060208201905081810360008301526149b381614977565b9050919050565b600069ffffffffffffffffffff82169050919050565b6149d9816149ba565b81146149e457600080fd5b50565b6000815190506149f6816149d0565b92915050565b6000819050919050565b614a0f816149fc565b8114614a1a57600080fd5b50565b600081519050614a2c81614a06565b92915050565b600080600080600060a08688031215614a4e57614a4d612f5a565b5b6000614a5c888289016149e7565b9550506020614a6d88828901614a1d565b9450506040614a7e888289016138ea565b9350506060614a8f888289016138ea565b9250506080614aa0888289016149e7565b9150509295509295909350565b7f496e76616c69642070726963652066726f6d206f7261636c6500000000000000600082015250565b6000614ae3601983613439565b9150614aee82614aad565b602082019050919050565b60006020820190508181036000830152614b1281614ad6565b9050919050565b7f50726963652064617461206973207374616c6500000000000000000000000000600082015250565b6000614b4f601383613439565b9150614b5a82614b19565b602082019050919050565b60006020820190508181036000830152614b7e81614b42565b9050919050565b600060ff82169050919050565b614b9b81614b85565b8114614ba657600080fd5b50565b600081519050614bb881614b92565b92915050565b600060208284031215614bd457614bd3612f5a565b5b6000614be284828501614ba9565b91505092915050565b60008160011c9050919050565b6000808291508390505b6001851115614c4257808604811115614c1e57614c1d6135da565b5b6001851615614c2d5780820291505b8081029050614c3b85614beb565b9450614c02565b94509492505050565b600082614c5b5760019050614d17565b81614c695760009050614d17565b8160018114614c7f5760028114614c8957614cb8565b6001915050614d17565b60ff841115614c9b57614c9a6135da565b5b8360020a915084821115614cb257614cb16135da565b5b50614d17565b5060208310610133831016604e8410600b8410161715614ced5782820a905083811115614ce857614ce76135da565b5b614d17565b614cfa8484846001614bf8565b92509050818404811115614d1157614d106135da565b5b81810290505b9392505050565b6000614d2982612fc2565b9150614d3483614b85565b9250614d617fffffffffffffffffffffffffffffffffffffffffffffffffffffffffffffffff8484614c4b565b905092915050565b6000604082019050614d7e600083018561313d565b614d8b602083018461314c565b9392505050565b6000819050919050565b6000614db7614db2614dad84614d92565b61322d565b612fc2565b9050919050565b614dc781614d9c565b82525050565b6000604082019050614de2600083018561313d565b614def6020830184614dbe565b939250505056fea264697066735822122003da886edea97c3fef93169b5e6e3b36a2d08767ba4ca40be1c08dd99e88841664736f6c634300081c0033",
  "linkReferences": {},
  "deployedLinkReferences": {}
}