{
  "_format": "hh-sol-artifact-1",
  "contractName": "Betapp",
  "sourceName": "contracts/Betapp.sol",
  "abi": [
    {
      "inputs": [
        {
          "internalType": "address",
          "name": "vrfCoordinatorV2Plus",
          "type": "address"
        },
        {
          "internalType": "uint256",
          "name": "subscriptionId",
          "type": "uint256"
        },
        {
          "internalType": "bytes32",
          "name": "keyHash",
          "type": "bytes32"
        },
        {
          "internalType": "uint32",
          "name": "callbackGasLimit",
          "type": "uint32"
        },
        {
          "internalType": "address",
          "name": "_uniswapRouter",
          "type": "address"
        }
      ],
      "stateMutability": "nonpayable",
      "type": "constructor"
    },
    {
      "inputs": [
        {
          "internalType": "address",
          "name": "have",
          "type": "address"
        },
        {
          "internalType": "address",
          "name": "want",
          "type": "address"
        }
      ],
      "name": "OnlyCoordinatorCanFulfill",
      "type": "error"
    },
    {
      "inputs": [
        {
          "internalType": "address",
          "name": "have",
          "type": "address"
        },
        {
          "internalType": "address",
          "name": "owner",
          "type": "address"
        },
        {
          "internalType": "address",
          "name": "coordinator",
          "type": "address"
        }
      ],
      "name": "OnlyOwnerOrCoordinator",
      "type": "error"
    },
    {
      "inputs": [],
      "name": "ReentrancyGuardReentrantCall",
      "type": "error"
    },
    {
      "inputs": [
        {
          "internalType": "address",
          "name": "token",
          "type": "address"
        }
      ],
      "name": "SafeERC20FailedOperation",
      "type": "error"
    },
    {
      "inputs": [],
      "name": "ZeroAddress",
      "type": "error"
    },
    {
      "anonymous": false,
      "inputs": [
        {
          "indexed": true,
          "internalType": "uint256",
          "name": "betId",
          "type": "uint256"
        },
        {
          "indexed": false,
          "internalType": "uint256",
          "name": "totalEtherValue",
          "type": "uint256"
        }
      ],
      "name": "BetClosed",
      "type": "event"
    },
    {
      "anonymous": false,
      "inputs": [
        {
          "indexed": true,
          "internalType": "uint256",
          "name": "betId",
          "type": "uint256"
        },
        {
          "indexed": true,
          "internalType": "address",
          "name": "creator",
          "type": "address"
        },
        {
          "indexed": false,
          "internalType": "address",
          "name": "token",
          "type": "address"
        },
        {
          "indexed": false,
          "internalType": "uint256",
          "name": "amount",
          "type": "uint256"
        },
        {
          "indexed": false,
          "internalType": "uint256",
          "name": "endtime",
          "type": "uint256"
        }
      ],
      "name": "BetCreated",
      "type": "event"
    },
    {
      "anonymous": false,
      "inputs": [
        {
          "indexed": true,
          "internalType": "uint256",
          "name": "betId",
          "type": "uint256"
        },
        {
          "indexed": true,
          "internalType": "address",
          "name": "participant",
          "type": "address"
        }
      ],
      "name": "BetJoined",
      "type": "event"
    },
    {
      "anonymous": false,
      "inputs": [
        {
          "indexed": false,
          "internalType": "address",
          "name": "vrfCoordinator",
          "type": "address"
        }
      ],
      "name": "CoordinatorSet",
      "type": "event"
    },
    {
      "anonymous": false,
      "inputs": [
        {
          "indexed": true,
          "internalType": "address",
          "name": "from",
          "type": "address"
        },
        {
          "indexed": true,
          "internalType": "address",
          "name": "to",
          "type": "address"
        }
      ],
      "name": "OwnershipTransferRequested",
      "type": "event"
    },
    {
      "anonymous": false,
      "inputs": [
        {
          "indexed": true,
          "internalType": "address",
          "name": "from",
          "type": "address"
        },
        {
          "indexed": true,
          "internalType": "address",
          "name": "to",
          "type": "address"
        }
      ],
      "name": "OwnershipTransferred",
      "type": "event"
    },
    {
      "anonymous": false,
      "inputs": [
        {
          "indexed": true,
          "internalType": "uint256",
          "name": "betId",
          "type": "uint256"
        },
        {
          "indexed": false,
          "internalType": "uint256",
          "name": "tokenAmount",
          "type": "uint256"
        },
        {
          "indexed": false,
          "internalType": "uint256",
          "name": "ethReceived",
          "type": "uint256"
        }
      ],
      "name": "TokensSwappedToETH",
      "type": "event"
    },
    {
      "anonymous": false,
      "inputs": [
        {
          "indexed": true,
          "internalType": "uint256",
          "name": "betId",
          "type": "uint256"
        },
        {
          "indexed": true,
          "internalType": "uint256",
          "name": "requestId",
          "type": "uint256"
        }
      ],
      "name": "WinnerRequested",
      "type": "event"
    },
    {
      "anonymous": false,
      "inputs": [
        {
          "indexed": true,
          "internalType": "uint256",
          "name": "betId",
          "type": "uint256"
        },
        {
          "indexed": true,
          "internalType": "address",
          "name": "winner",
          "type": "address"
        },
        {
          "indexed": false,
          "internalType": "uint256",
          "name": "winningAmount",
          "type": "uint256"
        },
        {
          "indexed": false,
          "internalType": "uint256",
          "name": "feeAmount",
          "type": "uint256"
        }
      ],
      "name": "WinnerSelected",
      "type": "event"
    },
    {
      "stateMutability": "payable",
      "type": "fallback"
    },
    {
      "inputs": [],
      "name": "acceptOwnership",
      "outputs": [],
      "stateMutability": "nonpayable",
      "type": "function"
    },
    {
      "inputs": [
        {
          "internalType": "address",
          "name": "token",
          "type": "address"
        },
        {
          "internalType": "address",
          "name": "priceFeed",
          "type": "address"
        }
      ],
      "name": "addSupportedToken",
      "outputs": [],
      "stateMutability": "nonpayable",
      "type": "function"
    },
    {
      "inputs": [],
      "name": "betIdCount",
      "outputs": [
        {
          "internalType": "uint256",
          "name": "",
          "type": "uint256"
        }
      ],
      "stateMutability": "view",
      "type": "function"
    },
    {
      "inputs": [
        {
          "internalType": "uint256",
          "name": "",
          "type": "uint256"
        }
      ],
      "name": "bets",
      "outputs": [
        {
          "internalType": "address",
          "name": "creator",
          "type": "address"
        },
        {
          "internalType": "address",
          "name": "token",
          "type": "address"
        },
        {
          "internalType": "uint256",
          "name": "amount",
          "type": "uint256"
        },
        {
          "internalType": "uint256",
          "name": "endtime",
          "type": "uint256"
        },
        {
          "internalType": "bool",
          "name": "closed",
          "type": "bool"
        },
        {
          "internalType": "address",
          "name": "winner",
          "type": "address"
        },
        {
          "internalType": "uint256",
          "name": "totalEtherValue",
          "type": "uint256"
        }
      ],
      "stateMutability": "view",
      "type": "function"
    },
    {
      "inputs": [
        {
          "internalType": "address",
          "name": "_token",
          "type": "address"
        },
        {
          "internalType": "uint256",
          "name": "_amount",
          "type": "uint256"
        },
        {
          "internalType": "uint256",
          "name": "_duration",
          "type": "uint256"
        }
      ],
      "name": "createBet",
      "outputs": [],
      "stateMutability": "nonpayable",
      "type": "function"
    },
    {
      "inputs": [
        {
          "internalType": "uint256",
          "name": "_betId",
          "type": "uint256"
        }
      ],
      "name": "endBet",
      "outputs": [],
      "stateMutability": "nonpayable",
      "type": "function"
    },
    {
      "inputs": [],
      "name": "fee",
      "outputs": [
        {
          "internalType": "uint256",
          "name": "",
          "type": "uint256"
        }
      ],
      "stateMutability": "view",
      "type": "function"
    },
    {
      "inputs": [
        {
          "internalType": "uint256",
          "name": "_betId",
          "type": "uint256"
        }
      ],
      "name": "getBetEtherValue",
      "outputs": [
        {
          "internalType": "uint256",
          "name": "etherValue",
          "type": "uint256"
        }
      ],
      "stateMutability": "view",
      "type": "function"
    },
    {
      "inputs": [
        {
          "internalType": "uint256",
          "name": "_betId",
          "type": "uint256"
        }
      ],
      "name": "getBetParticipants",
      "outputs": [
        {
          "internalType": "address[]",
          "name": "",
          "type": "address[]"
        }
      ],
      "stateMutability": "view",
      "type": "function"
    },
    {
      "inputs": [
        {
          "internalType": "uint256",
          "name": "_betId",
          "type": "uint256"
        }
      ],
      "name": "joinBet",
      "outputs": [],
      "stateMutability": "nonpayable",
      "type": "function"
    },
    {
      "inputs": [],
      "name": "owner",
      "outputs": [
        {
          "internalType": "address",
          "name": "",
          "type": "address"
        }
      ],
      "stateMutability": "view",
      "type": "function"
    },
    {
      "inputs": [
        {
          "internalType": "uint256",
          "name": "requestId",
          "type": "uint256"
        },
        {
          "internalType": "uint256[]",
          "name": "randomWords",
          "type": "uint256[]"
        }
      ],
      "name": "rawFulfillRandomWords",
      "outputs": [],
      "stateMutability": "nonpayable",
      "type": "function"
    },
    {
      "inputs": [
        {
          "internalType": "address",
          "name": "token",
          "type": "address"
        }
      ],
      "name": "removeSupportedToken",
      "outputs": [],
      "stateMutability": "nonpayable",
      "type": "function"
    },
    {
      "inputs": [],
      "name": "s_vrfCoordinator",
      "outputs": [
        {
          "internalType": "contract IVRFCoordinatorV2Plus",
          "name": "",
          "type": "address"
        }
      ],
      "stateMutability": "view",
      "type": "function"
    },
    {
      "inputs": [
        {
          "internalType": "uint256",
          "name": "_betId",
          "type": "uint256"
        }
      ],
      "name": "selectWinner",
      "outputs": [],
      "stateMutability": "nonpayable",
      "type": "function"
    },
    {
      "inputs": [
        {
          "internalType": "address",
          "name": "_vrfCoordinator",
          "type": "address"
        }
      ],
      "name": "setCoordinator",
      "outputs": [],
      "stateMutability": "nonpayable",
      "type": "function"
    },
    {
      "inputs": [],
      "name": "slippageTolerance",
      "outputs": [
        {
          "internalType": "uint256",
          "name": "",
          "type": "uint256"
        }
      ],
      "stateMutability": "view",
      "type": "function"
    },
    {
      "inputs": [
        {
          "internalType": "address",
          "name": "",
          "type": "address"
        }
      ],
      "name": "supportedTokens",
      "outputs": [
        {
          "internalType": "bool",
          "name": "",
          "type": "bool"
        }
      ],
      "stateMutability": "view",
      "type": "function"
    },
    {
      "inputs": [
        {
          "internalType": "address",
          "name": "",
          "type": "address"
        }
      ],
      "name": "tokenPriceFeeds",
      "outputs": [
        {
          "internalType": "address",
          "name": "",
          "type": "address"
        }
      ],
      "stateMutability": "view",
      "type": "function"
    },
    {
      "inputs": [
        {
          "internalType": "address",
          "name": "to",
          "type": "address"
        }
      ],
      "name": "transferOwnership",
      "outputs": [],
      "stateMutability": "nonpayable",
      "type": "function"
    },
    {
      "inputs": [],
      "name": "uniswapRouter",
      "outputs": [
        {
          "internalType": "contract IUniswapV2Router02",
          "name": "",
          "type": "address"
        }
      ],
      "stateMutability": "view",
      "type": "function"
    },
    {
      "inputs": [
        {
          "internalType": "uint256",
          "name": "",
          "type": "uint256"
        }
      ],
      "name": "vrfRequestToBetId",
      "outputs": [
        {
          "internalType": "uint256",
          "name": "",
          "type": "uint256"
        }
      ],
      "stateMutability": "view",
      "type": "function"
    },
    {
      "stateMutability": "payable",
      "type": "receive"
    }
  ],
  "bytecode": "0x610100604052600160045561012c60065534801561001c57600080fd5b50604051615475380380615475833981810160405281019061003e9190610485565b84338060006001600081905550600073ffffffffffffffffffffffffffffffffffffffff168273ffffffffffffffffffffffffffffffffffffffff16036100ba576040517f08c379a00000000000000000000000000000000000000000000000000000000081526004016100b19061055d565b60405180910390fd5b81600160006101000a81548173ffffffffffffffffffffffffffffffffffffffff021916908373ffffffffffffffffffffffffffffffffffffffff160217905550600073ffffffffffffffffffffffffffffffffffffffff168173ffffffffffffffffffffffffffffffffffffffff161461013f5761013e8161024c60201b60201c565b5b505050600073ffffffffffffffffffffffffffffffffffffffff168173ffffffffffffffffffffffffffffffffffffffff16036101a8576040517fd92e233d00000000000000000000000000000000000000000000000000000000815260040160405180910390fd5b80600360006101000a81548173ffffffffffffffffffffffffffffffffffffffff021916908373ffffffffffffffffffffffffffffffffffffffff1602179055505083608081815250508260a081815250508163ffffffff1660c08163ffffffff16815250508073ffffffffffffffffffffffffffffffffffffffff1660e08173ffffffffffffffffffffffffffffffffffffffff168152505050505050506105e9565b3373ffffffffffffffffffffffffffffffffffffffff168173ffffffffffffffffffffffffffffffffffffffff16036102ba576040517f08c379a00000000000000000000000000000000000000000000000000000000081526004016102b1906105c9565b60405180910390fd5b80600260006101000a81548173ffffffffffffffffffffffffffffffffffffffff021916908373ffffffffffffffffffffffffffffffffffffffff1602179055508073ffffffffffffffffffffffffffffffffffffffff16600160009054906101000a900473ffffffffffffffffffffffffffffffffffffffff1673ffffffffffffffffffffffffffffffffffffffff167fed8889f560326eb138920d842192f0eb3dd22b4f139c87a2c57538e05bae127860405160405180910390a350565b600080fd5b600073ffffffffffffffffffffffffffffffffffffffff82169050919050565b60006103aa8261037f565b9050919050565b6103ba8161039f565b81146103c557600080fd5b50565b6000815190506103d7816103b1565b92915050565b6000819050919050565b6103f0816103dd565b81146103fb57600080fd5b50565b60008151905061040d816103e7565b92915050565b6000819050919050565b61042681610413565b811461043157600080fd5b50565b6000815190506104438161041d565b92915050565b600063ffffffff82169050919050565b61046281610449565b811461046d57600080fd5b50565b60008151905061047f81610459565b92915050565b600080600080600060a086880312156104a1576104a061037a565b5b60006104af888289016103c8565b95505060206104c0888289016103fe565b94505060406104d188828901610434565b93505060606104e288828901610470565b92505060806104f3888289016103c8565b9150509295509295909350565b600082825260208201905092915050565b7f43616e6e6f7420736574206f776e657220746f207a65726f0000000000000000600082015250565b6000610547601883610500565b915061055282610511565b602082019050919050565b600060208201905081810360008301526105768161053a565b9050919050565b7f43616e6e6f74207472616e7366657220746f2073656c66000000000000000000600082015250565b60006105b3601783610500565b91506105be8261057d565b602082019050919050565b600060208201905081810360008301526105e2816105a6565b9050919050565b60805160a05160c05160e051614e3761063e6000396000818161125201528181612518015281816125fd015281816126dc01526127d001526000611128015260006110d1015260006110f70152614e376000f3fe6080604052600436106101395760003560e01c80639eccacf6116100ab578063d03153aa1161006f578063d03153aa14610416578063d1c8882a14610441578063ddca3f431461046c578063dfb9546214610497578063f2fde38b146104d4578063f92eb6f2146104fd5761013a565b80639eccacf61461031f578063bd9c47e31461034a578063c2b7be1614610387578063c5684099146103b0578063cdfdb089146103ed5761013a565b806368c4ac26116100fd57806368c4ac2614610223578063735de9f714610260578063763191901461028b57806379ba5097146102b45780638da5cb5b146102cb5780638ea98117146102f65761013a565b8063020de5c71461013c5780631fe543e31461016557806322af00fa1461018e57806339fb3f45146101d15780634c524be4146101fa5761013a565b5b005b34801561014857600080fd5b50610163600480360381019061015e9190613003565b61053a565b005b34801561017157600080fd5b5061018c600480360381019061018791906130bb565b6107a0565b005b34801561019a57600080fd5b506101b560048036038101906101b0919061311b565b610866565b6040516101c89796959493929190613181565b60405180910390f35b3480156101dd57600080fd5b506101f860048036038101906101f3919061311b565b610915565b005b34801561020657600080fd5b50610221600480360381019061021c919061311b565b610dcb565b005b34801561022f57600080fd5b5061024a600480360381019061024591906131f0565b611230565b604051610257919061321d565b60405180910390f35b34801561026c57600080fd5b50610275611250565b6040516102829190613297565b60405180910390f35b34801561029757600080fd5b506102b260048036038101906102ad91906131f0565b611274565b005b3480156102c057600080fd5b506102c9611363565b005b3480156102d757600080fd5b506102e06114fa565b6040516102ed91906132b2565b60405180910390f35b34801561030257600080fd5b5061031d600480360381019061031891906131f0565b611524565b005b34801561032b57600080fd5b50610334611705565b60405161034191906132ee565b60405180910390f35b34801561035657600080fd5b50610371600480360381019061036c91906131f0565b61172b565b60405161037e91906132b2565b60405180910390f35b34801561039357600080fd5b506103ae60048036038101906103a99190613309565b61175e565b005b3480156103bc57600080fd5b506103d760048036038101906103d2919061311b565b6119ab565b6040516103e49190613407565b60405180910390f35b3480156103f957600080fd5b50610414600480360381019061040f919061311b565b611a4f565b005b34801561042257600080fd5b5061042b611d80565b6040516104389190613429565b60405180910390f35b34801561044d57600080fd5b50610456611d86565b6040516104639190613429565b60405180910390f35b34801561047857600080fd5b50610481611d8c565b60405161048e9190613429565b60405180910390f35b3480156104a357600080fd5b506104be60048036038101906104b9919061311b565b611d92565b6040516104cb9190613429565b60405180910390f35b3480156104e057600080fd5b506104fb60048036038101906104f691906131f0565b611daa565b005b34801561050957600080fd5b50610524600480360381019061051f919061311b565b611dbe565b6040516105319190613429565b60405180910390f35b6000821161057d576040517f08c379a0000000000000000000000000000000000000000000000000000000008152600401610574906134c7565b60405180910390fd5b600081116105c0576040517f08c379a00000000000000000000000000000000000000000000000000000000081526004016105b790613559565b60405180910390fd5b600860008473ffffffffffffffffffffffffffffffffffffffff1673ffffffffffffffffffffffffffffffffffffffff16815260200190815260200160002060009054906101000a900460ff1661064c576040517f08c379a0000000000000000000000000000000000000000000000000000000008152600401610643906135c5565b60405180910390fd5b6005600081548092919061065f90613614565b9190505550600060055490506000600760008381526020019081526020016000209050338160000160006101000a81548173ffffffffffffffffffffffffffffffffffffffff021916908373ffffffffffffffffffffffffffffffffffffffff160217905550848160010160006101000a81548173ffffffffffffffffffffffffffffffffffffffff021916908373ffffffffffffffffffffffffffffffffffffffff160217905550838160020181905550824261071d919061365c565b816003018190555060008160040160006101000a81548160ff0219169083151502179055503373ffffffffffffffffffffffffffffffffffffffff16827fb1d7bacd770604b85127593c65bb407cfd28bc2c88214836012879c0832e20348787856003015460405161079193929190613690565b60405180910390a35050505050565b600360009054906101000a900473ffffffffffffffffffffffffffffffffffffffff1673ffffffffffffffffffffffffffffffffffffffff163373ffffffffffffffffffffffffffffffffffffffff16146108565733600360009054906101000a900473ffffffffffffffffffffffffffffffffffffffff166040517f1cf993f400000000000000000000000000000000000000000000000000000000815260040161084d9291906136c7565b60405180910390fd5b610861838383611ead565b505050565b60076020528060005260406000206000915090508060000160009054906101000a900473ffffffffffffffffffffffffffffffffffffffff16908060010160009054906101000a900473ffffffffffffffffffffffffffffffffffffffff16908060020154908060030154908060040160009054906101000a900460ff16908060040160019054906101000a900473ffffffffffffffffffffffffffffffffffffffff16908060060154905087565b61091d612297565b6000600760008381526020019081526020016000209050600073ffffffffffffffffffffffffffffffffffffffff168160000160009054906101000a900473ffffffffffffffffffffffffffffffffffffffff1673ffffffffffffffffffffffffffffffffffffffff16036109c7576040517f08c379a00000000000000000000000000000000000000000000000000000000081526004016109be9061373c565b60405180910390fd5b8060040160009054906101000a900460ff1615610a19576040517f08c379a0000000000000000000000000000000000000000000000000000000008152600401610a10906137a8565b60405180910390fd5b80600301544210610a5f576040517f08c379a0000000000000000000000000000000000000000000000000000000008152600401610a5690613814565b60405180910390fd5b60005b8160050180549050811015610b2c573373ffffffffffffffffffffffffffffffffffffffff16826005018281548110610a9e57610a9d613834565b5b9060005260206000200160009054906101000a900473ffffffffffffffffffffffffffffffffffffffff1673ffffffffffffffffffffffffffffffffffffffff1603610b1f576040517f08c379a0000000000000000000000000000000000000000000000000000000008152600401610b16906138d5565b60405180910390fd5b8080600101915050610a62565b5060008160010160009054906101000a900473ffffffffffffffffffffffffffffffffffffffff16905060008173ffffffffffffffffffffffffffffffffffffffff166370a08231336040518263ffffffff1660e01b8152600401610b9191906132b2565b602060405180830381865afa158015610bae573d6000803e3d6000fd5b505050506040513d601f19601f82011682018060405250810190610bd2919061390a565b905060008273ffffffffffffffffffffffffffffffffffffffff1663dd62ed3e33306040518363ffffffff1660e01b8152600401610c119291906136c7565b602060405180830381865afa158015610c2e573d6000803e3d6000fd5b505050506040513d601f19601f82011682018060405250810190610c52919061390a565b90508360020154821015610c9b576040517f08c379a0000000000000000000000000000000000000000000000000000000008152600401610c9290613983565b60405180910390fd5b8360020154811015610ce2576040517f08c379a0000000000000000000000000000000000000000000000000000000008152600401610cd9906139ef565b60405180910390fd5b610d13333086600201548673ffffffffffffffffffffffffffffffffffffffff166122dd909392919063ffffffff16565b83600501339080600181540180825580915050600190039060005260206000200160009091909190916101000a81548173ffffffffffffffffffffffffffffffffffffffff021916908373ffffffffffffffffffffffffffffffffffffffff1602179055503373ffffffffffffffffffffffffffffffffffffffff16857f7f737563bc6765fe3374430df34adffc917ae44d5f183880c1331e558185d0e160405160405180910390a350505050610dc861235f565b50565b610dd3612297565b6000600760008381526020019081526020016000209050600073ffffffffffffffffffffffffffffffffffffffff168160000160009054906101000a900473ffffffffffffffffffffffffffffffffffffffff1673ffffffffffffffffffffffffffffffffffffffff1603610e7d576040517f08c379a0000000000000000000000000000000000000000000000000000000008152600401610e749061373c565b60405180910390fd5b8060000160009054906101000a900473ffffffffffffffffffffffffffffffffffffffff1673ffffffffffffffffffffffffffffffffffffffff163373ffffffffffffffffffffffffffffffffffffffff1614610f0f576040517f08c379a0000000000000000000000000000000000000000000000000000000008152600401610f0690613a81565b60405180910390fd5b8060040160009054906101000a900460ff16610f60576040517f08c379a0000000000000000000000000000000000000000000000000000000008152600401610f5790613aed565b60405180910390fd5b600073ffffffffffffffffffffffffffffffffffffffff168160040160019054906101000a900473ffffffffffffffffffffffffffffffffffffffff1673ffffffffffffffffffffffffffffffffffffffff1614610ff3576040517f08c379a0000000000000000000000000000000000000000000000000000000008152600401610fea90613b59565b60405180910390fd5b600081600501805490501161103d576040517f08c379a000000000000000000000000000000000000000000000000000000000815260040161103490613bc5565b60405180910390fd5b6000816006015411611084576040517f08c379a000000000000000000000000000000000000000000000000000000000815260040161107b90613c57565b60405180910390fd5b6000600360009054906101000a900473ffffffffffffffffffffffffffffffffffffffff1673ffffffffffffffffffffffffffffffffffffffff16639b1c385e6040518060c001604052807f000000000000000000000000000000000000000000000000000000000000000081526020017f00000000000000000000000000000000000000000000000000000000000000008152602001600361ffff1681526020017f000000000000000000000000000000000000000000000000000000000000000063ffffffff168152602001600163ffffffff168152602001611179604051806020016040528060011515815250612369565b8152506040518263ffffffff1660e01b81526004016111989190613df4565b6020604051808303816000875af11580156111b7573d6000803e3d6000fd5b505050506040513d601f19601f820116820180604052508101906111db919061390a565b905082600a60008381526020019081526020016000208190555080837f708691262b677612d65fe057f7788158f3bfedcc25f9d7b50adaa889b0048ace60405160405180910390a3505061122d61235f565b50565b60086020528060005260406000206000915054906101000a900460ff1681565b7f000000000000000000000000000000000000000000000000000000000000000081565b61127c612401565b600860008273ffffffffffffffffffffffffffffffffffffffff1673ffffffffffffffffffffffffffffffffffffffff16815260200190815260200160002060009054906101000a900460ff16611308576040517f08c379a00000000000000000000000000000000000000000000000000000000081526004016112ff90613e62565b60405180910390fd5b6000600860008373ffffffffffffffffffffffffffffffffffffffff1673ffffffffffffffffffffffffffffffffffffffff16815260200190815260200160002060006101000a81548160ff02191690831515021790555050565b600260009054906101000a900473ffffffffffffffffffffffffffffffffffffffff1673ffffffffffffffffffffffffffffffffffffffff163373ffffffffffffffffffffffffffffffffffffffff16146113f3576040517f08c379a00000000000000000000000000000000000000000000000000000000081526004016113ea90613ece565b60405180910390fd5b6000600160009054906101000a900473ffffffffffffffffffffffffffffffffffffffff16905033600160006101000a81548173ffffffffffffffffffffffffffffffffffffffff021916908373ffffffffffffffffffffffffffffffffffffffff1602179055506000600260006101000a81548173ffffffffffffffffffffffffffffffffffffffff021916908373ffffffffffffffffffffffffffffffffffffffff1602179055503373ffffffffffffffffffffffffffffffffffffffff168173ffffffffffffffffffffffffffffffffffffffff167f8be0079c531659141344cd1fd0a4f28419497f9722a3daafe3b4186f6b6457e060405160405180910390a350565b6000600160009054906101000a900473ffffffffffffffffffffffffffffffffffffffff16905090565b61152c6114fa565b73ffffffffffffffffffffffffffffffffffffffff163373ffffffffffffffffffffffffffffffffffffffff16141580156115b55750600360009054906101000a900473ffffffffffffffffffffffffffffffffffffffff1673ffffffffffffffffffffffffffffffffffffffff163373ffffffffffffffffffffffffffffffffffffffff1614155b1561162457336115c36114fa565b600360009054906101000a900473ffffffffffffffffffffffffffffffffffffffff166040517f061db9c100000000000000000000000000000000000000000000000000000000815260040161161b93929190613eee565b60405180910390fd5b600073ffffffffffffffffffffffffffffffffffffffff168173ffffffffffffffffffffffffffffffffffffffff160361168a576040517fd92e233d00000000000000000000000000000000000000000000000000000000815260040160405180910390fd5b80600360006101000a81548173ffffffffffffffffffffffffffffffffffffffff021916908373ffffffffffffffffffffffffffffffffffffffff1602179055507fd1a6a14209a385a964d036e404cb5cfb71f4000cdb03c9366292430787261be6816040516116fa91906132b2565b60405180910390a150565b600360009054906101000a900473ffffffffffffffffffffffffffffffffffffffff1681565b60096020528060005260406000206000915054906101000a900473ffffffffffffffffffffffffffffffffffffffff1681565b611766612401565b600073ffffffffffffffffffffffffffffffffffffffff168273ffffffffffffffffffffffffffffffffffffffff16036117d5576040517f08c379a00000000000000000000000000000000000000000000000000000000081526004016117cc90613f71565b60405180910390fd5b600073ffffffffffffffffffffffffffffffffffffffff168173ffffffffffffffffffffffffffffffffffffffff1603611844576040517f08c379a000000000000000000000000000000000000000000000000000000000815260040161183b90613fdd565b60405180910390fd5b600860008373ffffffffffffffffffffffffffffffffffffffff1673ffffffffffffffffffffffffffffffffffffffff16815260200190815260200160002060009054906101000a900460ff16156118d1576040517f08c379a00000000000000000000000000000000000000000000000000000000081526004016118c890614049565b60405180910390fd5b6001600860008473ffffffffffffffffffffffffffffffffffffffff1673ffffffffffffffffffffffffffffffffffffffff16815260200190815260200160002060006101000a81548160ff02191690831515021790555080600960008473ffffffffffffffffffffffffffffffffffffffff1673ffffffffffffffffffffffffffffffffffffffff16815260200190815260200160002060006101000a81548173ffffffffffffffffffffffffffffffffffffffff021916908373ffffffffffffffffffffffffffffffffffffffff1602179055505050565b606060076000838152602001908152602001600020600501805480602002602001604051908101604052809291908181526020018280548015611a4357602002820191906000526020600020905b8160009054906101000a900473ffffffffffffffffffffffffffffffffffffffff1673ffffffffffffffffffffffffffffffffffffffff16815260200190600101908083116119f9575b50505050509050919050565b611a57612297565b60006007600083815260200190815260200160002090506000805b8260050180549050811015611b0a573373ffffffffffffffffffffffffffffffffffffffff16836005018281548110611aae57611aad613834565b5b9060005260206000200160009054906101000a900473ffffffffffffffffffffffffffffffffffffffff1673ffffffffffffffffffffffffffffffffffffffff1603611afd5760019150611b0a565b8080600101915050611a72565b508160000160009054906101000a900473ffffffffffffffffffffffffffffffffffffffff1673ffffffffffffffffffffffffffffffffffffffff163373ffffffffffffffffffffffffffffffffffffffff161480611b665750805b611ba5576040517f08c379a0000000000000000000000000000000000000000000000000000000008152600401611b9c906140db565b60405180910390fd5b600073ffffffffffffffffffffffffffffffffffffffff168260000160009054906101000a900473ffffffffffffffffffffffffffffffffffffffff1673ffffffffffffffffffffffffffffffffffffffff1603611c38576040517f08c379a0000000000000000000000000000000000000000000000000000000008152600401611c2f9061373c565b60405180910390fd5b8160040160009054906101000a900460ff1615611c8a576040517f08c379a0000000000000000000000000000000000000000000000000000000008152600401611c8190614147565b60405180910390fd5b81600301544211611cd0576040517f08c379a0000000000000000000000000000000000000000000000000000000008152600401611cc7906141b3565b60405180910390fd5b6000611cdb84612493565b90506000611d0d8460010160009054906101000a900473ffffffffffffffffffffffffffffffffffffffff16836124ca565b905080846006018190555060018460040160006101000a81548160ff021916908315150217905550847f32156e2f00f9aaf2f28c62e902ea3bbc5a0fa451e3aabecffaca0d5931f5d9098560060154604051611d699190613429565b60405180910390a250505050611d7d61235f565b50565b60065481565b60055481565b60045481565b600a6020528060005260406000206000915090505481565b611db2612401565b611dbb8161289f565b50565b600080600760008481526020019081526020016000209050600073ffffffffffffffffffffffffffffffffffffffff168160000160009054906101000a900473ffffffffffffffffffffffffffffffffffffffff1673ffffffffffffffffffffffffffffffffffffffff1603611e69576040517f08c379a0000000000000000000000000000000000000000000000000000000008152600401611e609061373c565b60405180910390fd5b6000611e7484612493565b9050611ea48260010160009054906101000a900473ffffffffffffffffffffffffffffffffffffffff16826129cd565b92505050919050565b6000600a60008581526020019081526020016000205490506000600760008381526020019081526020016000209050600073ffffffffffffffffffffffffffffffffffffffff168160000160009054906101000a900473ffffffffffffffffffffffffffffffffffffffff1673ffffffffffffffffffffffffffffffffffffffff1603611f6f576040517f08c379a0000000000000000000000000000000000000000000000000000000008152600401611f669061421f565b60405180910390fd5b600073ffffffffffffffffffffffffffffffffffffffff168160040160019054906101000a900473ffffffffffffffffffffffffffffffffffffffff1673ffffffffffffffffffffffffffffffffffffffff1614612002576040517f08c379a0000000000000000000000000000000000000000000000000000000008152600401611ff990613b59565b60405180910390fd5b6000816006015411612049576040517f08c379a00000000000000000000000000000000000000000000000000000000081526004016120409061428b565b60405180910390fd5b6000816005018054905011612093576040517f08c379a000000000000000000000000000000000000000000000000000000000815260040161208a906142f7565b60405180910390fd5b60008160050180549050858560008181106120b1576120b0613834565b5b905060200201356120c29190614346565b905060008260050182815481106120dc576120db613834565b5b9060005260206000200160009054906101000a900473ffffffffffffffffffffffffffffffffffffffff169050808360040160016101000a81548173ffffffffffffffffffffffffffffffffffffffff021916908373ffffffffffffffffffffffffffffffffffffffff16021790555060008360060154905060006064600454836121679190614377565b61217191906143b9565b90506000818361218191906143ea565b9050600081111561223a5760008473ffffffffffffffffffffffffffffffffffffffff16826040516121b29061444f565b60006040518083038185875af1925050503d80600081146121ef576040519150601f19603f3d011682016040523d82523d6000602084013e6121f4565b606091505b5050905080612238576040517f08c379a000000000000000000000000000000000000000000000000000000000815260040161222f906144b0565b60405180910390fd5b505b8373ffffffffffffffffffffffffffffffffffffffff16877f3d210d5ae36955ded2bdf69bd956eb075b7fd07362288c7df1797cd8eb1199bf83856040516122839291906144d0565b60405180910390a350505050505050505050565b6002600054036122d3576040517f3ee5aeb500000000000000000000000000000000000000000000000000000000815260040160405180910390fd5b6002600081905550565b612359848573ffffffffffffffffffffffffffffffffffffffff166323b872dd868686604051602401612312939291906144f9565b604051602081830303815290604052915060e01b6020820180517bffffffffffffffffffffffffffffffffffffffffffffffffffffffff8381831617835250505050612d4a565b50505050565b6001600081905550565b60607f92fd13387c7fe7befbc38d303d6468778fb9731bc4583f17d92989c6fcfdeaaa8260405160240161239d919061455b565b604051602081830303815290604052907bffffffffffffffffffffffffffffffffffffffffffffffffffffffff19166020820180517bffffffffffffffffffffffffffffffffffffffffffffffffffffffff83818316178352505050509050919050565b600160009054906101000a900473ffffffffffffffffffffffffffffffffffffffff1673ffffffffffffffffffffffffffffffffffffffff163373ffffffffffffffffffffffffffffffffffffffff1614612491576040517f08c379a0000000000000000000000000000000000000000000000000000000008152600401612488906145c2565b60405180910390fd5b565b600080600760008481526020019081526020016000209050806005018054905081600201546124c29190614377565b915050919050565b600080821161250e576040517f08c379a000000000000000000000000000000000000000000000000000000000815260040161250590614654565b60405180910390fd5b600083905061255e7f0000000000000000000000000000000000000000000000000000000000000000848373ffffffffffffffffffffffffffffffffffffffff16612dec9092919063ffffffff16565b6000600267ffffffffffffffff81111561257b5761257a614674565b5b6040519080825280602002602001820160405280156125a95781602001602082028036833780820191505090505b50905084816000815181106125c1576125c0613834565b5b602002602001019073ffffffffffffffffffffffffffffffffffffffff16908173ffffffffffffffffffffffffffffffffffffffff16815250507f000000000000000000000000000000000000000000000000000000000000000073ffffffffffffffffffffffffffffffffffffffff1663ad5c46486040518163ffffffff1660e01b8152600401602060405180830381865afa158015612666573d6000803e3d6000fd5b505050506040513d601f19601f8201168201806040525081019061268a91906146b8565b8160018151811061269e5761269d613834565b5b602002602001019073ffffffffffffffffffffffffffffffffffffffff16908173ffffffffffffffffffffffffffffffffffffffff168152505060007f000000000000000000000000000000000000000000000000000000000000000073ffffffffffffffffffffffffffffffffffffffff1663d06ca61f86846040518363ffffffff1660e01b81526004016127359291906146e5565b600060405180830381865afa158015612752573d6000803e3d6000fd5b505050506040513d6000823e3d601f19601f8201168201806040525081019061277b9190614824565b905060008160018151811061279357612792613834565b5b6020026020010151905060006127106006546127106127b291906143ea565b836127bd9190614377565b6127c791906143b9565b905060004790507f000000000000000000000000000000000000000000000000000000000000000073ffffffffffffffffffffffffffffffffffffffff166318cbafe58984883061012c4261281c919061365c565b6040518663ffffffff1660e01b815260040161283c95949392919061486d565b6000604051808303816000875af115801561285b573d6000803e3d6000fd5b505050506040513d6000823e3d601f19601f820116820180604052508101906128849190614824565b50804761289191906143ea565b965050505050505092915050565b3373ffffffffffffffffffffffffffffffffffffffff168173ffffffffffffffffffffffffffffffffffffffff160361290d576040517f08c379a000000000000000000000000000000000000000000000000000000000815260040161290490614913565b60405180910390fd5b80600260006101000a81548173ffffffffffffffffffffffffffffffffffffffff021916908373ffffffffffffffffffffffffffffffffffffffff1602179055508073ffffffffffffffffffffffffffffffffffffffff16600160009054906101000a900473ffffffffffffffffffffffffffffffffffffffff1673ffffffffffffffffffffffffffffffffffffffff167fed8889f560326eb138920d842192f0eb3dd22b4f139c87a2c57538e05bae127860405160405180910390a350565b60008073ffffffffffffffffffffffffffffffffffffffff16600960008573ffffffffffffffffffffffffffffffffffffffff1673ffffffffffffffffffffffffffffffffffffffff16815260200190815260200160002060009054906101000a900473ffffffffffffffffffffffffffffffffffffffff1673ffffffffffffffffffffffffffffffffffffffff1603612a9c576040517f08c379a0000000000000000000000000000000000000000000000000000000008152600401612a93906149a5565b60405180910390fd5b6000600960008573ffffffffffffffffffffffffffffffffffffffff1673ffffffffffffffffffffffffffffffffffffffff16815260200190815260200160002060009054906101000a900473ffffffffffffffffffffffffffffffffffffffff16905060008060008060008573ffffffffffffffffffffffffffffffffffffffff1663feaf968c6040518163ffffffff1660e01b815260040160a060405180830381865afa158015612b53573d6000803e3d6000fd5b505050506040513d601f19601f82011682018060405250810190612b779190614a3d565b9450945094509450945060008413612bc4576040517f08c379a0000000000000000000000000000000000000000000000000000000008152600401612bbb90614b04565b60405180910390fd5b60008211612c07576040517f08c379a0000000000000000000000000000000000000000000000000000000008152600401612bfe90614b70565b60405180910390fd5b60008973ffffffffffffffffffffffffffffffffffffffff1663313ce5676040518163ffffffff1660e01b8152600401602060405180830381865afa158015612c54573d6000803e3d6000fd5b505050506040513d601f19601f82011682018060405250810190612c789190614bc9565b905060008773ffffffffffffffffffffffffffffffffffffffff1663313ce5676040518163ffffffff1660e01b8152600401602060405180830381865afa158015612cc7573d6000803e3d6000fd5b505050506040513d601f19601f82011682018060405250810190612ceb9190614bc9565b905080600a612cfa9190614d29565b82600a612d079190614d29565b612d119190614377565b670de0b6b3a7640000878c612d269190614377565b612d309190614377565b612d3a91906143b9565b9850505050505050505092915050565b600080602060008451602086016000885af180612d6d576040513d6000823e3d81fd5b3d925060005191505060008214612d88576001811415612da4565b60008473ffffffffffffffffffffffffffffffffffffffff163b145b15612de657836040517f5274afe7000000000000000000000000000000000000000000000000000000008152600401612ddd91906132b2565b60405180910390fd5b50505050565b60008373ffffffffffffffffffffffffffffffffffffffff1663095ea7b38484604051602401612e1d929190614d74565b604051602081830303815290604052915060e01b6020820180517bffffffffffffffffffffffffffffffffffffffffffffffffffffffff83818316178352505050509050612e6b8482612efb565b612ef557612eea848573ffffffffffffffffffffffffffffffffffffffff1663095ea7b3866000604051602401612ea3929190614dd8565b604051602081830303815290604052915060e01b6020820180517bffffffffffffffffffffffffffffffffffffffffffffffffffffffff8381831617835250505050612d4a565b612ef48482612d4a565b5b50505050565b6000806000806020600086516020880160008a5af192503d91506000519050828015612f50575060008214612f335760018114612f4f565b60008673ffffffffffffffffffffffffffffffffffffffff163b115b5b935050505092915050565b6000604051905090565b600080fd5b600080fd5b600073ffffffffffffffffffffffffffffffffffffffff82169050919050565b6000612f9a82612f6f565b9050919050565b612faa81612f8f565b8114612fb557600080fd5b50565b600081359050612fc781612fa1565b92915050565b6000819050919050565b612fe081612fcd565b8114612feb57600080fd5b50565b600081359050612ffd81612fd7565b92915050565b60008060006060848603121561301c5761301b612f65565b5b600061302a86828701612fb8565b935050602061303b86828701612fee565b925050604061304c86828701612fee565b9150509250925092565b600080fd5b600080fd5b600080fd5b60008083601f84011261307b5761307a613056565b5b8235905067ffffffffffffffff8111156130985761309761305b565b5b6020830191508360208202830111156130b4576130b3613060565b5b9250929050565b6000806000604084860312156130d4576130d3612f65565b5b60006130e286828701612fee565b935050602084013567ffffffffffffffff81111561310357613102612f6a565b5b61310f86828701613065565b92509250509250925092565b60006020828403121561313157613130612f65565b5b600061313f84828501612fee565b91505092915050565b61315181612f8f565b82525050565b61316081612fcd565b82525050565b60008115159050919050565b61317b81613166565b82525050565b600060e082019050613196600083018a613148565b6131a36020830189613148565b6131b06040830188613157565b6131bd6060830187613157565b6131ca6080830186613172565b6131d760a0830185613148565b6131e460c0830184613157565b98975050505050505050565b60006020828403121561320657613205612f65565b5b600061321484828501612fb8565b91505092915050565b60006020820190506132326000830184613172565b92915050565b6000819050919050565b600061325d61325861325384612f6f565b613238565b612f6f565b9050919050565b600061326f82613242565b9050919050565b600061328182613264565b9050919050565b61329181613276565b82525050565b60006020820190506132ac6000830184613288565b92915050565b60006020820190506132c76000830184613148565b92915050565b60006132d882613264565b9050919050565b6132e8816132cd565b82525050565b600060208201905061330360008301846132df565b92915050565b600080604083850312156133205761331f612f65565b5b600061332e85828601612fb8565b925050602061333f85828601612fb8565b9150509250929050565b600081519050919050565b600082825260208201905092915050565b6000819050602082019050919050565b61337e81612f8f565b82525050565b60006133908383613375565b60208301905092915050565b6000602082019050919050565b60006133b482613349565b6133be8185613354565b93506133c983613365565b8060005b838110156133fa5781516133e18882613384565b97506133ec8361339c565b9250506001810190506133cd565b5085935050505092915050565b6000602082019050818103600083015261342181846133a9565b905092915050565b600060208201905061343e6000830184613157565b92915050565b600082825260208201905092915050565b7f42657420616d6f756e74206d7573742062652067726561746572207468616e2060008201527f7a65726f00000000000000000000000000000000000000000000000000000000602082015250565b60006134b1602483613444565b91506134bc82613455565b604082019050919050565b600060208201905081810360008301526134e0816134a4565b9050919050565b7f4475726174696f6e206d7573742062652067726561746572207468616e207a6560008201527f726f000000000000000000000000000000000000000000000000000000000000602082015250565b6000613543602283613444565b915061354e826134e7565b604082019050919050565b6000602082019050818103600083015261357281613536565b9050919050565b7f546f6b656e206e6f7420737570706f727465642e000000000000000000000000600082015250565b60006135af601483613444565b91506135ba82613579565b602082019050919050565b600060208201905081810360008301526135de816135a2565b9050919050565b7f4e487b7100000000000000000000000000000000000000000000000000000000600052601160045260246000fd5b600061361f82612fcd565b91507fffffffffffffffffffffffffffffffffffffffffffffffffffffffffffffffff8203613651576136506135e5565b5b600182019050919050565b600061366782612fcd565b915061367283612fcd565b925082820190508082111561368a576136896135e5565b5b92915050565b60006060820190506136a56000830186613148565b6136b26020830185613157565b6136bf6040830184613157565b949350505050565b60006040820190506136dc6000830185613148565b6136e96020830184613148565b9392505050565b7f42657420646f6573206e6f742065786973740000000000000000000000000000600082015250565b6000613726601283613444565b9150613731826136f0565b602082019050919050565b6000602082019050818103600083015261375581613719565b9050919050565b7f42657420697320636c6f7365642e000000000000000000000000000000000000600082015250565b6000613792600e83613444565b915061379d8261375c565b602082019050919050565b600060208201905081810360008301526137c181613785565b9050919050565b7f426574206475726174696f6e2068617320657870697265640000000000000000600082015250565b60006137fe601883613444565b9150613809826137c8565b602082019050919050565b6000602082019050818103600083015261382d816137f1565b9050919050565b7f4e487b7100000000000000000000000000000000000000000000000000000000600052603260045260246000fd5b7f596f75206861766520616c7265616479206a6f696e656420746869732062657460008201527f2e00000000000000000000000000000000000000000000000000000000000000602082015250565b60006138bf602183613444565b91506138ca82613863565b604082019050919050565b600060208201905081810360008301526138ee816138b2565b9050919050565b60008151905061390481612fd7565b92915050565b6000602082840312156139205761391f612f65565b5b600061392e848285016138f5565b91505092915050565b7f496e73756666696369656e7420746f6b656e2062616c616e6365000000000000600082015250565b600061396d601a83613444565b915061397882613937565b602082019050919050565b6000602082019050818103600083015261399c81613960565b9050919050565b7f496e73756666696369656e7420746f6b656e20616c6c6f77616e636500000000600082015250565b60006139d9601c83613444565b91506139e4826139a3565b602082019050919050565b60006020820190508181036000830152613a08816139cc565b9050919050565b7f4f6e6c79206265742063726561746f722063616e2073656c6563742077696e6e60008201527f6572000000000000000000000000000000000000000000000000000000000000602082015250565b6000613a6b602283613444565b9150613a7682613a0f565b604082019050919050565b60006020820190508181036000830152613a9a81613a5e565b9050919050565b7f426574206d75737420626520636c6f7365642066697273740000000000000000600082015250565b6000613ad7601883613444565b9150613ae282613aa1565b602082019050919050565b60006020820190508181036000830152613b0681613aca565b9050919050565b7f57696e6e657220616c72656164792073656c6563746564000000000000000000600082015250565b6000613b43601783613444565b9150613b4e82613b0d565b602082019050919050565b60006020820190508181036000830152613b7281613b36565b9050919050565b7f4e6f207061727469636970616e747320696e2062657400000000000000000000600082015250565b6000613baf601683613444565b9150613bba82613b79565b602082019050919050565b60006020820190508181036000830152613bde81613ba2565b9050919050565b7f4e6f2045544820617661696c61626c6520666f7220646973747269627574696f60008201527f6e00000000000000000000000000000000000000000000000000000000000000602082015250565b6000613c41602183613444565b9150613c4c82613be5565b604082019050919050565b60006020820190508181036000830152613c7081613c34565b9050919050565b6000819050919050565b613c8a81613c77565b82525050565b613c9981612fcd565b82525050565b600061ffff82169050919050565b613cb681613c9f565b82525050565b600063ffffffff82169050919050565b613cd581613cbc565b82525050565b600081519050919050565b600082825260208201905092915050565b60005b83811015613d15578082015181840152602081019050613cfa565b60008484015250505050565b6000601f19601f8301169050919050565b6000613d3d82613cdb565b613d478185613ce6565b9350613d57818560208601613cf7565b613d6081613d21565b840191505092915050565b600060c083016000830151613d836000860182613c81565b506020830151613d966020860182613c90565b506040830151613da96040860182613cad565b506060830151613dbc6060860182613ccc565b506080830151613dcf6080860182613ccc565b5060a083015184820360a0860152613de78282613d32565b9150508091505092915050565b60006020820190508181036000830152613e0e8184613d6b565b905092915050565b7f546f6b656e20616c726561647920756e737570706f727465642e000000000000600082015250565b6000613e4c601a83613444565b9150613e5782613e16565b602082019050919050565b60006020820190508181036000830152613e7b81613e3f565b9050919050565b7f4d7573742062652070726f706f736564206f776e657200000000000000000000600082015250565b6000613eb8601683613444565b9150613ec382613e82565b602082019050919050565b60006020820190508181036000830152613ee781613eab565b9050919050565b6000606082019050613f036000830186613148565b613f106020830185613148565b613f1d6040830184613148565b949350505050565b7f496e76616c696420746f6b656e20616464726573730000000000000000000000600082015250565b6000613f5b601583613444565b9150613f6682613f25565b602082019050919050565b60006020820190508181036000830152613f8a81613f4e565b9050919050565b7f496e76616c696420707269636520666565642061646472657373000000000000600082015250565b6000613fc7601a83613444565b9150613fd282613f91565b602082019050919050565b60006020820190508181036000830152613ff681613fba565b9050919050565b7f546f6b656e20616c726561647920737570706f727465642e0000000000000000600082015250565b6000614033601883613444565b915061403e82613ffd565b602082019050919050565b6000602082019050818103600083015261406281614026565b9050919050565b7f4f6e6c79204265742063726561746f72206f72207061727469636970616e742060008201527f63616e20636c6f73652074686973206265740000000000000000000000000000602082015250565b60006140c5603283613444565b91506140d082614069565b604082019050919050565b600060208201905081810360008301526140f4816140b8565b9050919050565b7f42657420697320616c726561647920636c6f7365642e00000000000000000000600082015250565b6000614131601683613444565b915061413c826140fb565b602082019050919050565b6000602082019050818103600083015261416081614124565b9050919050565b7f54686520426574206475726174696f6e206e6f7420656e646564206e6f772e00600082015250565b600061419d601f83613444565b91506141a882614167565b602082019050919050565b600060208201905081810360008301526141cc81614190565b9050919050565b7f496e76616c696420626574000000000000000000000000000000000000000000600082015250565b6000614209600b83613444565b9150614214826141d3565b602082019050919050565b60006020820190508181036000830152614238816141fc565b9050919050565b7f546f6b656e73206e6f74207377617070656420746f2045544800000000000000600082015250565b6000614275601983613444565b91506142808261423f565b602082019050919050565b600060208201905081810360008301526142a481614268565b9050919050565b7f4e6f207061727469636970616e74730000000000000000000000000000000000600082015250565b60006142e1600f83613444565b91506142ec826142ab565b602082019050919050565b60006020820190508181036000830152614310816142d4565b9050919050565b7f4e487b7100000000000000000000000000000000000000000000000000000000600052601260045260246000fd5b600061435182612fcd565b915061435c83612fcd565b92508261436c5761436b614317565b5b828206905092915050565b600061438282612fcd565b915061438d83612fcd565b925082820261439b81612fcd565b915082820484148315176143b2576143b16135e5565b5b5092915050565b60006143c482612fcd565b91506143cf83612fcd565b9250826143df576143de614317565b5b828204905092915050565b60006143f582612fcd565b915061440083612fcd565b9250828203905081811115614418576144176135e5565b5b92915050565b600081905092915050565b50565b600061443960008361441e565b915061444482614429565b600082019050919050565b600061445a8261442c565b9150819050919050565b7f455448207472616e7366657220746f2077696e6e6572206661696c6564000000600082015250565b600061449a601d83613444565b91506144a582614464565b602082019050919050565b600060208201905081810360008301526144c98161448d565b9050919050565b60006040820190506144e56000830185613157565b6144f26020830184613157565b9392505050565b600060608201905061450e6000830186613148565b61451b6020830185613148565b6145286040830184613157565b949350505050565b61453981613166565b82525050565b6020820160008201516145556000850182614530565b50505050565b6000602082019050614570600083018461453f565b92915050565b7f4f6e6c792063616c6c61626c65206279206f776e657200000000000000000000600082015250565b60006145ac601683613444565b91506145b782614576565b602082019050919050565b600060208201905081810360008301526145db8161459f565b9050919050565b7f546f6b656e20616d6f756e74206d75737420626520677265617465722074686160008201527f6e207a65726f0000000000000000000000000000000000000000000000000000602082015250565b600061463e602683613444565b9150614649826145e2565b604082019050919050565b6000602082019050818103600083015261466d81614631565b9050919050565b7f4e487b7100000000000000000000000000000000000000000000000000000000600052604160045260246000fd5b6000815190506146b281612fa1565b92915050565b6000602082840312156146ce576146cd612f65565b5b60006146dc848285016146a3565b91505092915050565b60006040820190506146fa6000830185613157565b818103602083015261470c81846133a9565b90509392505050565b61471e82613d21565b810181811067ffffffffffffffff8211171561473d5761473c614674565b5b80604052505050565b6000614750612f5b565b905061475c8282614715565b919050565b600067ffffffffffffffff82111561477c5761477b614674565b5b602082029050602081019050919050565b60006147a061479b84614761565b614746565b905080838252602082019050602084028301858111156147c3576147c2613060565b5b835b818110156147ec57806147d888826138f5565b8452602084019350506020810190506147c5565b5050509392505050565b600082601f83011261480b5761480a613056565b5b815161481b84826020860161478d565b91505092915050565b60006020828403121561483a57614839612f65565b5b600082015167ffffffffffffffff81111561485857614857612f6a565b5b614864848285016147f6565b91505092915050565b600060a0820190506148826000830188613157565b61488f6020830187613157565b81810360408301526148a181866133a9565b90506148b06060830185613148565b6148bd6080830184613157565b9695505050505050565b7f43616e6e6f74207472616e7366657220746f2073656c66000000000000000000600082015250565b60006148fd601783613444565b9150614908826148c7565b602082019050919050565b6000602082019050818103600083015261492c816148f0565b9050919050565b7f50726963652066656564206e6f7420617661696c61626c6520666f7220746f6b60008201527f656e000000000000000000000000000000000000000000000000000000000000602082015250565b600061498f602283613444565b915061499a82614933565b604082019050919050565b600060208201905081810360008301526149be81614982565b9050919050565b600069ffffffffffffffffffff82169050919050565b6149e4816149c5565b81146149ef57600080fd5b50565b600081519050614a01816149db565b92915050565b6000819050919050565b614a1a81614a07565b8114614a2557600080fd5b50565b600081519050614a3781614a11565b92915050565b600080600080600060a08688031215614a5957614a58612f65565b5b6000614a67888289016149f2565b9550506020614a7888828901614a28565b9450506040614a89888289016138f5565b9350506060614a9a888289016138f5565b9250506080614aab888289016149f2565b9150509295509295909350565b7f496e76616c69642070726963652066726f6d206f7261636c6500000000000000600082015250565b6000614aee601983613444565b9150614af982614ab8565b602082019050919050565b60006020820190508181036000830152614b1d81614ae1565b9050919050565b7f50726963652064617461206973207374616c6500000000000000000000000000600082015250565b6000614b5a601383613444565b9150614b6582614b24565b602082019050919050565b60006020820190508181036000830152614b8981614b4d565b9050919050565b600060ff82169050919050565b614ba681614b90565b8114614bb157600080fd5b50565b600081519050614bc381614b9d565b92915050565b600060208284031215614bdf57614bde612f65565b5b6000614bed84828501614bb4565b91505092915050565b60008160011c9050919050565b6000808291508390505b6001851115614c4d57808604811115614c2957614c286135e5565b5b6001851615614c385780820291505b8081029050614c4685614bf6565b9450614c0d565b94509492505050565b600082614c665760019050614d22565b81614c745760009050614d22565b8160018114614c8a5760028114614c9457614cc3565b6001915050614d22565b60ff841115614ca657614ca56135e5565b5b8360020a915084821115614cbd57614cbc6135e5565b5b50614d22565b5060208310610133831016604e8410600b8410161715614cf85782820a905083811115614cf357614cf26135e5565b5b614d22565b614d058484846001614c03565b92509050818404811115614d1c57614d1b6135e5565b5b81810290505b9392505050565b6000614d3482612fcd565b9150614d3f83614b90565b9250614d6c7fffffffffffffffffffffffffffffffffffffffffffffffffffffffffffffffff8484614c56565b905092915050565b6000604082019050614d896000830185613148565b614d966020830184613157565b9392505050565b6000819050919050565b6000614dc2614dbd614db884614d9d565b613238565b612fcd565b9050919050565b614dd281614da7565b82525050565b6000604082019050614ded6000830185613148565b614dfa6020830184614dc9565b939250505056fea2646970667358221220b64d772b0d4bbf5a8c2a58733042b1860406fe5d47913ab5d0884e6337f95aa864736f6c634300081c0033",
  "linkReferences": {},
  "deployedLinkReferences": {}
}