{
  "_format": "hh-sol-artifact-1",
  "contractName": "MockPriceFeed",
  "sourceName": "contracts/MockPriceFeed.sol",
  "abi": [
    {
      "inputs": [
        {
          "internalType": "uint8",
          "name": "_decimals",
          "type": "uint8"
        },
        {
          "internalType": "int256",
          "name": "_price",
          "type": "int256"
        }
      ],
      "stateMutability": "nonpayable",
      "type": "constructor"
    },
    {
      "inputs": [],
      "name": "decimals",
      "outputs": [
        {
          "internalType": "uint8",
          "name": "",
          "type": "uint8"
        }
      ],
      "stateMutability": "view",
      "type": "function"
    },
    {
      "inputs": [],
      "name": "latestRoundData",
      "outputs": [
        {
          "internalType": "uint80",
          "name": "roundId",
          "type": "uint80"
        },
        {
          "internalType": "int256",
          "name": "answer",
          "type": "int256"
        },
        {
          "internalType": "uint256",
          "name": "startedAt",
          "type": "uint256"
        },
        {
          "internalType": "uint256",
          "name": "updatedAt_",
          "type": "uint256"
        },
        {
          "internalType": "uint80",
          "name": "answeredInRound",
          "type": "uint80"
        }
      ],
      "stateMutability": "view",
      "type": "function"
    },
    {
      "inputs": [],
      "name": "price",
      "outputs": [
        {
          "internalType": "int256",
          "name": "",
          "type": "int256"
        }
      ],
      "stateMutability": "view",
      "type": "function"
    },
    {
      "inputs": [],
      "name": "updatedAt",
      "outputs": [
        {
          "internalType": "uint256",
          "name": "",
          "type": "uint256"
        }
      ],
      "stateMutability": "view",
      "type": "function"
    }
  ],
  "bytecode": "0x608060405234801561001057600080fd5b5060405161037e38038061037e833981810160405281019061003291906100d5565b816000806101000a81548160ff021916908360ff16021790555080600181905550426002819055505050610115565b600080fd5b600060ff82169050919050565b61007c81610066565b811461008757600080fd5b50565b60008151905061009981610073565b92915050565b6000819050919050565b6100b28161009f565b81146100bd57600080fd5b50565b6000815190506100cf816100a9565b92915050565b600080604083850312156100ec576100eb610061565b5b60006100fa8582860161008a565b925050602061010b858286016100c0565b9150509250929050565b61025a806101246000396000f3fe608060405234801561001057600080fd5b506004361061004c5760003560e01c8063313ce567146100515780637519ab501461006f578063a035b1fe1461008d578063feaf968c146100ab575b600080fd5b6100596100cd565b6040516100669190610129565b60405180910390f35b6100776100de565b604051610084919061015d565b60405180910390f35b6100956100e4565b6040516100a29190610191565b60405180910390f35b6100b36100ea565b6040516100c49594939291906101d1565b60405180910390f35b60008054906101000a900460ff1681565b60025481565b60015481565b600080600080600060018054426002546001945094509450945094509091929394565b600060ff82169050919050565b6101238161010d565b82525050565b600060208201905061013e600083018461011a565b92915050565b6000819050919050565b61015781610144565b82525050565b6000602082019050610172600083018461014e565b92915050565b6000819050919050565b61018b81610178565b82525050565b60006020820190506101a66000830184610182565b92915050565b600069ffffffffffffffffffff82169050919050565b6101cb816101ac565b82525050565b600060a0820190506101e660008301886101c2565b6101f36020830187610182565b610200604083018661014e565b61020d606083018561014e565b61021a60808301846101c2565b969550505050505056fea2646970667358221220d7b3139049cc1b8848d6c121c0d853bcd16fc59495d18bc42b59d2720b87a67164736f6c634300081c0033",
  "linkReferences": {},
  "deployedLinkReferences": {}
}