{
  "_format": "hh-sol-artifact-1",
  "contractName": "MockVRFCoordinator",
  "sourceName": "contracts/MockVRFCoordinator.sol",
  "abi": [
    {
      "inputs": [
        {
          "internalType": "uint256",
          "name": "requestId",
          "type": "uint256"
        },
        {
          "internalType": "uint256[]",
          "name": "randomWords",
          "type": "uint256[]"
        }
      ],
      "name": "fulfillRandomWords",
      "outputs": [],
      "stateMutability": "nonpayable",
      "type": "function"
    },
    {
      "inputs": [
        {
          "internalType": "bytes",
          "name": "",
          "type": "bytes"
        }
      ],
      "name": "requestRandomWords",
      "outputs": [
        {
          "internalType": "uint256",
          "name": "",
          "type": "uint256"
        }
      ],
      "stateMutability": "nonpayable",
      "type": "function"
    }
  ],
  "bytecode": "0x608060405260008055348015601357600080fd5b506105dd806100236000396000f3fe608060405234801561001057600080fd5b50600436106100365760003560e01c806338ba46141461003b5780635435ac2e14610057575b600080fd5b610055600480360381019061005091906102be565b610087565b005b610071600480360381019061006c91906103cf565b6100f8565b60405161007e9190610427565b60405180910390f35b3373ffffffffffffffffffffffffffffffffffffffff16631fe543e383836040518363ffffffff1660e01b81526004016100c2929190610500565b600060405180830381600087803b1580156100dc57600080fd5b505af11580156100f0573d6000803e3d6000fd5b505050505050565b600080600081548092919061010c9061055f565b91905055506000549050919050565b6000604051905090565b600080fd5b600080fd5b6000819050919050565b6101428161012f565b811461014d57600080fd5b50565b60008135905061015f81610139565b92915050565b600080fd5b6000601f19601f8301169050919050565b7f4e487b7100000000000000000000000000000000000000000000000000000000600052604160045260246000fd5b6101b38261016a565b810181811067ffffffffffffffff821117156101d2576101d161017b565b5b80604052505050565b60006101e561011b565b90506101f182826101aa565b919050565b600067ffffffffffffffff8211156102115761021061017b565b5b602082029050602081019050919050565b600080fd5b600061023a610235846101f6565b6101db565b9050808382526020820190506020840283018581111561025d5761025c610222565b5b835b8181101561028657806102728882610150565b84526020840193505060208101905061025f565b5050509392505050565b600082601f8301126102a5576102a4610165565b5b81356102b5848260208601610227565b91505092915050565b600080604083850312156102d5576102d4610125565b5b60006102e385828601610150565b925050602083013567ffffffffffffffff8111156103045761030361012a565b5b61031085828601610290565b9150509250929050565b600080fd5b600067ffffffffffffffff82111561033a5761033961017b565b5b6103438261016a565b9050602081019050919050565b82818337600083830152505050565b600061037261036d8461031f565b6101db565b90508281526020810184848401111561038e5761038d61031a565b5b610399848285610350565b509392505050565b600082601f8301126103b6576103b5610165565b5b81356103c684826020860161035f565b91505092915050565b6000602082840312156103e5576103e4610125565b5b600082013567ffffffffffffffff8111156104035761040261012a565b5b61040f848285016103a1565b91505092915050565b6104218161012f565b82525050565b600060208201905061043c6000830184610418565b92915050565b600081519050919050565b600082825260208201905092915050565b6000819050602082019050919050565b6104778161012f565b82525050565b6000610489838361046e565b60208301905092915050565b6000602082019050919050565b60006104ad82610442565b6104b7818561044d565b93506104c28361045e565b8060005b838110156104f35781516104da888261047d565b97506104e583610495565b9250506001810190506104c6565b5085935050505092915050565b60006040820190506105156000830185610418565b818103602083015261052781846104a2565b90509392505050565b7f4e487b7100000000000000000000000000000000000000000000000000000000600052601160045260246000fd5b600061056a8261012f565b91507fffffffffffffffffffffffffffffffffffffffffffffffffffffffffffffffff820361059c5761059b610530565b5b60018201905091905056fea2646970667358221220cc34d6db73244571f4a5493d3adb1c0b4b135c573603b84b65b6b914aff5e80664736f6c634300081c0033",
  "linkReferences": {},
  "deployedLinkReferences": {}
}