{
  "_format": "hh-sol-artifact-1",
  "contractName": "MockVRFCoordinator",
  "sourceName": "contracts/MockVRFCoordinator.sol",
  "abi": [
    {
      "inputs": [
        {
          "internalType": "uint256",
          "name": "requestId",
          "type": "uint256"
        }
      ],
      "name": "fulfillRandomWordsWithRandom",
      "outputs": [],
      "stateMutability": "nonpayable",
      "type": "function"
    },
    {
      "inputs": [
        {
          "components": [
            {
              "internalType": "bytes32",
              "name": "keyHash",
              "type": "bytes32"
            },
            {
              "internalType": "uint256",
              "name": "subId",
              "type": "uint256"
            },
            {
              "internalType": "uint16",
              "name": "requestConfirmations",
              "type": "uint16"
            },
            {
              "internalType": "uint32",
              "name": "callbackGasLimit",
              "type": "uint32"
            },
            {
              "internalType": "uint32",
              "name": "numWords",
              "type": "uint32"
            },
            {
              "internalType": "bytes",
              "name": "extraArgs",
              "type": "bytes"
            }
          ],
          "internalType": "struct VRFV2PlusClient.RandomWordsRequest",
          "name": "req",
          "type": "tuple"
        }
      ],
      "name": "requestRandomWords",
      "outputs": [
        {
          "internalType": "uint256",
          "name": "",
          "type": "uint256"
        }
      ],
      "stateMutability": "nonpayable",
      "type": "function"
    }
  ],
  "bytecode": "0x608060405260008055348015601357600080fd5b50610698806100236000396000f3fe608060405234801561001057600080fd5b50600436106100365760003560e01c806385fa2f4b1461003b5780639b1c385e14610057575b600080fd5b61005560048036038101906100509190610300565b610087565b005b610071600480360381019061006c9190610351565b610131565b60405161007e91906103a9565b60405180910390f35b6000600167ffffffffffffffff8111156100a4576100a36103c4565b5b6040519080825280602002602001820160405280156100d25781602001602082028036833780820191505090505b5090504244836040516020016100ea93929190610414565b6040516020818303038152906040528051906020012060001c8160008151811061011757610116610451565b5b60200260200101818152505061012d82826101a7565b5050565b6000806000815480929190610145906104af565b919050555033600160008054815260200190815260200160002060006101000a81548173ffffffffffffffffffffffffffffffffffffffff021916908373ffffffffffffffffffffffffffffffffffffffff1602179055506000549050919050565b60006001600084815260200190815260200160002060009054906101000a900473ffffffffffffffffffffffffffffffffffffffff169050600073ffffffffffffffffffffffffffffffffffffffff168173ffffffffffffffffffffffffffffffffffffffff160361024e576040517f08c379a000000000000000000000000000000000000000000000000000000000815260040161024590610554565b60405180910390fd5b8073ffffffffffffffffffffffffffffffffffffffff16631fe543e384846040518363ffffffff1660e01b8152600401610289929190610632565b600060405180830381600087803b1580156102a357600080fd5b505af11580156102b7573d6000803e3d6000fd5b50505050505050565b600080fd5b600080fd5b6000819050919050565b6102dd816102ca565b81146102e857600080fd5b50565b6000813590506102fa816102d4565b92915050565b600060208284031215610316576103156102c0565b5b6000610324848285016102eb565b91505092915050565b600080fd5b600060c082840312156103485761034761032d565b5b81905092915050565b600060208284031215610367576103666102c0565b5b600082013567ffffffffffffffff811115610385576103846102c5565b5b61039184828501610332565b91505092915050565b6103a3816102ca565b82525050565b60006020820190506103be600083018461039a565b92915050565b7f4e487b7100000000000000000000000000000000000000000000000000000000600052604160045260246000fd5b6000819050919050565b61040e610409826102ca565b6103f3565b82525050565b600061042082866103fd565b60208201915061043082856103fd565b60208201915061044082846103fd565b602082019150819050949350505050565b7f4e487b7100000000000000000000000000000000000000000000000000000000600052603260045260246000fd5b7f4e487b7100000000000000000000000000000000000000000000000000000000600052601160045260246000fd5b60006104ba826102ca565b91507fffffffffffffffffffffffffffffffffffffffffffffffffffffffffffffffff82036104ec576104eb610480565b5b600182019050919050565b600082825260208201905092915050565b7f496e76616c696420726571756573742049440000000000000000000000000000600082015250565b600061053e6012836104f7565b915061054982610508565b602082019050919050565b6000602082019050818103600083015261056d81610531565b9050919050565b600081519050919050565b600082825260208201905092915050565b6000819050602082019050919050565b6105a9816102ca565b82525050565b60006105bb83836105a0565b60208301905092915050565b6000602082019050919050565b60006105df82610574565b6105e9818561057f565b93506105f483610590565b8060005b8381101561062557815161060c88826105af565b9750610617836105c7565b9250506001810190506105f8565b5085935050505092915050565b6000604082019050610647600083018561039a565b818103602083015261065981846105d4565b9050939250505056fea2646970667358221220431a089efd7edc72c216169f8d9f10bf4eb4b5e8ae3bb9ae6be04d846d2e364d64736f6c634300081c0033",
  "linkReferences": {},
  "deployedLinkReferences": {}
}