{
  "_format": "hh-sol-artifact-1",
  "contractName": "MockUniswapRouter",
  "sourceName": "contracts/MockUniswapRouter.sol",
  "abi": [
    {
      "inputs": [
        {
          "internalType": "address",
          "name": "_weth",
          "type": "address"
        }
      ],
      "stateMutability": "nonpayable",
      "type": "constructor"
    },
    {
      "anonymous": false,
      "inputs": [
        {
          "indexed": false,
          "internalType": "uint256",
          "name": "amountIn",
          "type": "uint256"
        },
        {
          "indexed": false,
          "internalType": "uint256",
          "name": "amountOut",
          "type": "uint256"
        },
        {
          "indexed": false,
          "internalType": "address[]",
          "name": "path",
          "type": "address[]"
        },
        {
          "indexed": false,
          "internalType": "address",
          "name": "to",
          "type": "address"
        }
      ],
      "name": "SwapExecuted",
      "type": "event"
    },
    {
      "inputs": [],
      "name": "WETH",
      "outputs": [
        {
          "internalType": "address",
          "name": "",
          "type": "address"
        }
      ],
      "stateMutability": "view",
      "type": "function"
    },
    {
      "inputs": [],
      "name": "fundRouter",
      "outputs": [],
      "stateMutability": "payable",
      "type": "function"
    },
    {
      "inputs": [
        {
          "internalType": "uint256",
          "name": "amountIn",
          "type": "uint256"
        },
        {
          "internalType": "address[]",
          "name": "path",
          "type": "address[]"
        }
      ],
      "name": "getAmountsOut",
      "outputs": [
        {
          "internalType": "uint256[]",
          "name": "amounts",
          "type": "uint256[]"
        }
      ],
      "stateMutability": "view",
      "type": "function"
    },
    {
      "inputs": [],
      "name": "getETHBalance",
      "outputs": [
        {
          "internalType": "uint256",
          "name": "",
          "type": "uint256"
        }
      ],
      "stateMutability": "view",
      "type": "function"
    },
    {
      "inputs": [],
      "name": "mockExchangeRate",
      "outputs": [
        {
          "internalType": "uint256",
          "name": "",
          "type": "uint256"
        }
      ],
      "stateMutability": "view",
      "type": "function"
    },
    {
      "inputs": [
        {
          "internalType": "uint256",
          "name": "_rate",
          "type": "uint256"
        }
      ],
      "name": "setMockExchangeRate",
      "outputs": [],
      "stateMutability": "nonpayable",
      "type": "function"
    },
    {
      "inputs": [
        {
          "internalType": "uint256",
          "name": "amountIn",
          "type": "uint256"
        },
        {
          "internalType": "uint256",
          "name": "amountOutMin",
          "type": "uint256"
        },
        {
          "internalType": "address[]",
          "name": "path",
          "type": "address[]"
        },
        {
          "internalType": "address",
          "name": "to",
          "type": "address"
        },
        {
          "internalType": "uint256",
          "name": "deadline",
          "type": "uint256"
        }
      ],
      "name": "swapExactTokensForETH",
      "outputs": [
        {
          "internalType": "uint256[]",
          "name": "amounts",
          "type": "uint256[]"
        }
      ],
      "stateMutability": "nonpayable",
      "type": "function"
    },
    {
      "inputs": [
        {
          "internalType": "uint256",
          "name": "amount",
          "type": "uint256"
        }
      ],
      "name": "withdrawETH",
      "outputs": [],
      "stateMutability": "nonpayable",
      "type": "function"
    },
    {
      "stateMutability": "payable",
      "type": "receive"
    }
  ],
  "bytecode": "0x60a060405266038d7ea4c6800060005534801561001b57600080fd5b50604051611745380380611745833981810160405281019061003d91906100da565b8073ffffffffffffffffffffffffffffffffffffffff1660808173ffffffffffffffffffffffffffffffffffffffff168152505050610107565b600080fd5b600073ffffffffffffffffffffffffffffffffffffffff82169050919050565b60006100a78261007c565b9050919050565b6100b78161009c565b81146100c257600080fd5b50565b6000815190506100d4816100ae565b92915050565b6000602082840312156100f0576100ef610077565b5b60006100fe848285016100c5565b91505092915050565b60805161161561013060003960008181610270015281816106b8015261072901526116156000f3fe60806040526004361061007f5760003560e01c8063ad5c46481161004e578063ad5c464814610126578063b8cb7b9c14610151578063d06ca61f1461017c578063f14210a6146101b957610086565b806318cbafe51461008b5780631b6208f8146100c8578063561102c6146100d25780636e947298146100fb57610086565b3661008657005b600080fd5b34801561009757600080fd5b506100b260048036038101906100ad9190610a9c565b6101e2565b6040516100bf9190610bf4565b60405180910390f35b6100d06106a2565b005b3480156100de57600080fd5b506100f960048036038101906100f49190610c16565b6106a4565b005b34801561010757600080fd5b506101106106ae565b60405161011d9190610c52565b60405180910390f35b34801561013257600080fd5b5061013b6106b6565b6040516101489190610c7c565b60405180910390f35b34801561015d57600080fd5b506101666106da565b6040516101739190610c52565b60405180910390f35b34801561018857600080fd5b506101a3600480360381019061019e9190610de6565b6106e0565b6040516101b09190610bf4565b60405180910390f35b3480156101c557600080fd5b506101e060048036038101906101db9190610c16565b61089c565b005b606042821015610227576040517f08c379a000000000000000000000000000000000000000000000000000000000815260040161021e90610e9f565b60405180910390fd5b600285859050101561026e576040517f08c379a000000000000000000000000000000000000000000000000000000000815260040161026590610f0b565b60405180910390fd5b7f000000000000000000000000000000000000000000000000000000000000000073ffffffffffffffffffffffffffffffffffffffff1685856001888890506102b79190610f5a565b8181106102c7576102c6610f8e565b5b90506020020160208101906102dc9190610fbd565b73ffffffffffffffffffffffffffffffffffffffff1614610332576040517f08c379a000000000000000000000000000000000000000000000000000000000815260040161032990611036565b60405180910390fd5b60008711610375576040517f08c379a000000000000000000000000000000000000000000000000000000000815260040161036c906110a2565b60405180910390fd5b60008585600081811061038b5761038a610f8e565b5b90506020020160208101906103a09190610fbd565b90508073ffffffffffffffffffffffffffffffffffffffff166323b872dd33308b6040518463ffffffff1660e01b81526004016103df939291906110c2565b6020604051808303816000875af11580156103fe573d6000803e3d6000fd5b505050506040513d601f19601f820116820180604052508101906104229190611131565b610461576040517f08c379a0000000000000000000000000000000000000000000000000000000008152600401610458906111aa565b60405180910390fd5b6000670de0b6b3a76400006000548a61047a91906111ca565b610484919061123b565b9050878110156104c9576040517f08c379a00000000000000000000000000000000000000000000000000000000081526004016104c0906112b8565b60405180910390fd5b8047101561050c576040517f08c379a000000000000000000000000000000000000000000000000000000000815260040161050390611324565b60405180910390fd5b60008573ffffffffffffffffffffffffffffffffffffffff168260405161053290611375565b60006040518083038185875af1925050503d806000811461056f576040519150601f19603f3d011682016040523d82523d6000602084013e610574565b606091505b50509050806105b8576040517f08c379a00000000000000000000000000000000000000000000000000000000081526004016105af906113d6565b60405180910390fd5b8787905067ffffffffffffffff8111156105d5576105d4610ca8565b5b6040519080825280602002602001820160405280156106035781602001602082028036833780820191505090505b509350898460008151811061061b5761061a610f8e565b5b602002602001018181525050818460018a8a90506106399190610f5a565b8151811061064a57610649610f8e565b5b6020026020010181815250507faef58fef7e55067ebc9562d0f42ce0cb77066d87c7ce977d2a5fdbf333e19d978a838a8a8a60405161068d9594939291906114b9565b60405180910390a15050509695505050505050565b565b8060008190555050565b600047905090565b7f000000000000000000000000000000000000000000000000000000000000000081565b60005481565b6060600282511015610727576040517f08c379a000000000000000000000000000000000000000000000000000000000815260040161071e90610f0b565b60405180910390fd5b7f000000000000000000000000000000000000000000000000000000000000000073ffffffffffffffffffffffffffffffffffffffff16826001845161076d9190610f5a565b8151811061077e5761077d610f8e565b5b602002602001015173ffffffffffffffffffffffffffffffffffffffff16146107dc576040517f08c379a00000000000000000000000000000000000000000000000000000000081526004016107d390611036565b60405180910390fd5b815167ffffffffffffffff8111156107f7576107f6610ca8565b5b6040519080825280602002602001820160405280156108255781602001602082028036833780820191505090505b509050828160008151811061083d5761083c610f8e565b5b602002602001018181525050670de0b6b3a76400006000548461086091906111ca565b61086a919061123b565b81600184516108799190610f5a565b8151811061088a57610889610f8e565b5b60200260200101818152505092915050565b804710156108df576040517f08c379a00000000000000000000000000000000000000000000000000000000081526004016108d690611553565b60405180910390fd5b60003373ffffffffffffffffffffffffffffffffffffffff168260405161090590611375565b60006040518083038185875af1925050503d8060008114610942576040519150601f19603f3d011682016040523d82523d6000602084013e610947565b606091505b505090508061098b576040517f08c379a0000000000000000000000000000000000000000000000000000000008152600401610982906115bf565b60405180910390fd5b5050565b6000604051905090565b600080fd5b600080fd5b6000819050919050565b6109b6816109a3565b81146109c157600080fd5b50565b6000813590506109d3816109ad565b92915050565b600080fd5b600080fd5b600080fd5b60008083601f8401126109fe576109fd6109d9565b5b8235905067ffffffffffffffff811115610a1b57610a1a6109de565b5b602083019150836020820283011115610a3757610a366109e3565b5b9250929050565b600073ffffffffffffffffffffffffffffffffffffffff82169050919050565b6000610a6982610a3e565b9050919050565b610a7981610a5e565b8114610a8457600080fd5b50565b600081359050610a9681610a70565b92915050565b60008060008060008060a08789031215610ab957610ab8610999565b5b6000610ac789828a016109c4565b9650506020610ad889828a016109c4565b955050604087013567ffffffffffffffff811115610af957610af861099e565b5b610b0589828a016109e8565b94509450506060610b1889828a01610a87565b9250506080610b2989828a016109c4565b9150509295509295509295565b600081519050919050565b600082825260208201905092915050565b6000819050602082019050919050565b610b6b816109a3565b82525050565b6000610b7d8383610b62565b60208301905092915050565b6000602082019050919050565b6000610ba182610b36565b610bab8185610b41565b9350610bb683610b52565b8060005b83811015610be7578151610bce8882610b71565b9750610bd983610b89565b925050600181019050610bba565b5085935050505092915050565b60006020820190508181036000830152610c0e8184610b96565b905092915050565b600060208284031215610c2c57610c2b610999565b5b6000610c3a848285016109c4565b91505092915050565b610c4c816109a3565b82525050565b6000602082019050610c676000830184610c43565b92915050565b610c7681610a5e565b82525050565b6000602082019050610c916000830184610c6d565b92915050565b6000601f19601f8301169050919050565b7f4e487b7100000000000000000000000000000000000000000000000000000000600052604160045260246000fd5b610ce082610c97565b810181811067ffffffffffffffff82111715610cff57610cfe610ca8565b5b80604052505050565b6000610d1261098f565b9050610d1e8282610cd7565b919050565b600067ffffffffffffffff821115610d3e57610d3d610ca8565b5b602082029050602081019050919050565b6000610d62610d5d84610d23565b610d08565b90508083825260208201905060208402830185811115610d8557610d846109e3565b5b835b81811015610dae5780610d9a8882610a87565b845260208401935050602081019050610d87565b5050509392505050565b600082601f830112610dcd57610dcc6109d9565b5b8135610ddd848260208601610d4f565b91505092915050565b60008060408385031215610dfd57610dfc610999565b5b6000610e0b858286016109c4565b925050602083013567ffffffffffffffff811115610e2c57610e2b61099e565b5b610e3885828601610db8565b9150509250929050565b600082825260208201905092915050565b7f5472616e73616374696f6e206578706972656400000000000000000000000000600082015250565b6000610e89601383610e42565b9150610e9482610e53565b602082019050919050565b60006020820190508181036000830152610eb881610e7c565b9050919050565b7f496e76616c696420706174680000000000000000000000000000000000000000600082015250565b6000610ef5600c83610e42565b9150610f0082610ebf565b602082019050919050565b60006020820190508181036000830152610f2481610ee8565b9050919050565b7f4e487b7100000000000000000000000000000000000000000000000000000000600052601160045260246000fd5b6000610f65826109a3565b9150610f70836109a3565b9250828203905081811115610f8857610f87610f2b565b5b92915050565b7f4e487b7100000000000000000000000000000000000000000000000000000000600052603260045260246000fd5b600060208284031215610fd357610fd2610999565b5b6000610fe184828501610a87565b91505092915050565b7f50617468206d75737420656e6420776974682057455448000000000000000000600082015250565b6000611020601783610e42565b915061102b82610fea565b602082019050919050565b6000602082019050818103600083015261104f81611013565b9050919050565b7f416d6f756e7420696e206d7573742062652067726561746572207468616e2030600082015250565b600061108c602083610e42565b915061109782611056565b602082019050919050565b600060208201905081810360008301526110bb8161107f565b9050919050565b60006060820190506110d76000830186610c6d565b6110e46020830185610c6d565b6110f16040830184610c43565b949350505050565b60008115159050919050565b61110e816110f9565b811461111957600080fd5b50565b60008151905061112b81611105565b92915050565b60006020828403121561114757611146610999565b5b60006111558482850161111c565b91505092915050565b7f546f6b656e207472616e73666572206661696c65640000000000000000000000600082015250565b6000611194601583610e42565b915061119f8261115e565b602082019050919050565b600060208201905081810360008301526111c381611187565b9050919050565b60006111d5826109a3565b91506111e0836109a3565b92508282026111ee816109a3565b9150828204841483151761120557611204610f2b565b5b5092915050565b7f4e487b7100000000000000000000000000000000000000000000000000000000600052601260045260246000fd5b6000611246826109a3565b9150611251836109a3565b9250826112615761126061120c565b5b828204905092915050565b7f496e73756666696369656e74206f757470757420616d6f756e74000000000000600082015250565b60006112a2601a83610e42565b91506112ad8261126c565b602082019050919050565b600060208201905081810360008301526112d181611295565b9050919050565b7f496e73756666696369656e742045544820696e20726f75746572000000000000600082015250565b600061130e601a83610e42565b9150611319826112d8565b602082019050919050565b6000602082019050818103600083015261133d81611301565b9050919050565b600081905092915050565b50565b600061135f600083611344565b915061136a8261134f565b600082019050919050565b600061138082611352565b9150819050919050565b7f455448207472616e73666572206661696c656400000000000000000000000000600082015250565b60006113c0601383610e42565b91506113cb8261138a565b602082019050919050565b600060208201905081810360008301526113ef816113b3565b9050919050565b600082825260208201905092915050565b6000819050919050565b61141a81610a5e565b82525050565b600061142c8383611411565b60208301905092915050565b60006114476020840184610a87565b905092915050565b6000602082019050919050565b600061146883856113f6565b935061147382611407565b8060005b858110156114ac576114898284611438565b6114938882611420565b975061149e8361144f565b925050600181019050611477565b5085925050509392505050565b60006080820190506114ce6000830188610c43565b6114db6020830187610c43565b81810360408301526114ee81858761145c565b90506114fd6060830184610c6d565b9695505050505050565b7f496e73756666696369656e742062616c616e6365000000000000000000000000600082015250565b600061153d601483610e42565b915061154882611507565b602082019050919050565b6000602082019050818103600083015261156c81611530565b9050919050565b7f455448207769746864726177616c206661696c65640000000000000000000000600082015250565b60006115a9601583610e42565b91506115b482611573565b602082019050919050565b600060208201905081810360008301526115d88161159c565b905091905056fea2646970667358221220f06f7777b78d2924c801e1ff4d12d7d6f17564050550e94be926bb3e367a70f564736f6c634300081c0033",
  "linkReferences": {},
  "deployedLinkReferences": {}
}