{
  "_format": "hh-sol-artifact-1",
  "contractName": "MockUniswapRouter",
  "sourceName": "contracts/MockUniswapRouter.sol",
  "abi": [
    {
      "inputs": [],
      "name": "WETH",
      "outputs": [
        {
          "internalType": "address",
          "name": "",
          "type": "address"
        }
      ],
      "stateMutability": "pure",
      "type": "function"
    },
    {
      "inputs": [
        {
          "internalType": "uint256",
          "name": "",
          "type": "uint256"
        },
        {
          "internalType": "address[]",
          "name": "path",
          "type": "address[]"
        }
      ],
      "name": "getAmountsOut",
      "outputs": [
        {
          "internalType": "uint256[]",
          "name": "",
          "type": "uint256[]"
        }
      ],
      "stateMutability": "view",
      "type": "function"
    },
    {
      "inputs": [
        {
          "internalType": "uint256",
          "name": "_ethOutput",
          "type": "uint256"
        }
      ],
      "name": "setETHOutput",
      "outputs": [],
      "stateMutability": "nonpayable",
      "type": "function"
    },
    {
      "inputs": [
        {
          "internalType": "uint256",
          "name": "",
          "type": "uint256"
        },
        {
          "internalType": "uint256",
          "name": "",
          "type": "uint256"
        },
        {
          "internalType": "address[]",
          "name": "",
          "type": "address[]"
        },
        {
          "internalType": "address",
          "name": "to",
          "type": "address"
        },
        {
          "internalType": "uint256",
          "name": "",
          "type": "uint256"
        }
      ],
      "name": "swapExactTokensForETH",
      "outputs": [
        {
          "internalType": "uint256[]",
          "name": "",
          "type": "uint256[]"
        }
      ],
      "stateMutability": "nonpayable",
      "type": "function"
    },
    {
      "stateMutability": "payable",
      "type": "receive"
    }
  ],
  "bytecode": "0x6080604052348015600f57600080fd5b5061075f8061001f6000396000f3fe6080604052600436106100435760003560e01c806318cbafe51461004f57806332b74be91461008c578063ad5c4648146100b5578063d06ca61f146100e05761004a565b3661004a57005b600080fd5b34801561005b57600080fd5b50610076600480360381019061007191906104d0565b61011d565b6040516100839190610625565b60405180910390f35b34801561009857600080fd5b506100b360048036038101906100ae9190610647565b610209565b005b3480156100c157600080fd5b506100ca610213565b6040516100d79190610683565b60405180910390f35b3480156100ec57600080fd5b506101076004803603810190610102919061069e565b61022f565b6040516101149190610625565b60405180910390f35b60608273ffffffffffffffffffffffffffffffffffffffff166108fc6000549081150290604051600060405180830381858888f19350505050158015610167573d6000803e3d6000fd5b506000600267ffffffffffffffff8111156101855761018461032f565b5b6040519080825280602002602001820160405280156101b35781602001602082028036833780820191505090505b5090506103e8816000815181106101cd576101cc6106fa565b5b602002602001018181525050600054816001815181106101f0576101ef6106fa565b5b6020026020010181815250508091505095945050505050565b8060008190555050565b600073c02aaa39b223fe8d0a0e5c4f27ead9083c756cc2905090565b60606000825167ffffffffffffffff81111561024e5761024d61032f565b5b60405190808252806020026020018201604052801561027c5781602001602082028036833780820191505090505b5090506103e881600081518110610296576102956106fa565b5b602002602001018181525050600054816001815181106102b9576102b86106fa565b5b6020026020010181815250508091505092915050565b6000604051905090565b600080fd5b600080fd5b6000819050919050565b6102f6816102e3565b811461030157600080fd5b50565b600081359050610313816102ed565b92915050565b600080fd5b6000601f19601f8301169050919050565b7f4e487b7100000000000000000000000000000000000000000000000000000000600052604160045260246000fd5b6103678261031e565b810181811067ffffffffffffffff821117156103865761038561032f565b5b80604052505050565b60006103996102cf565b90506103a5828261035e565b919050565b600067ffffffffffffffff8211156103c5576103c461032f565b5b602082029050602081019050919050565b600080fd5b600073ffffffffffffffffffffffffffffffffffffffff82169050919050565b6000610406826103db565b9050919050565b610416816103fb565b811461042157600080fd5b50565b6000813590506104338161040d565b92915050565b600061044c610447846103aa565b61038f565b9050808382526020820190506020840283018581111561046f5761046e6103d6565b5b835b8181101561049857806104848882610424565b845260208401935050602081019050610471565b5050509392505050565b600082601f8301126104b7576104b6610319565b5b81356104c7848260208601610439565b91505092915050565b600080600080600060a086880312156104ec576104eb6102d9565b5b60006104fa88828901610304565b955050602061050b88828901610304565b945050604086013567ffffffffffffffff81111561052c5761052b6102de565b5b610538888289016104a2565b935050606061054988828901610424565b925050608061055a88828901610304565b9150509295509295909350565b600081519050919050565b600082825260208201905092915050565b6000819050602082019050919050565b61059c816102e3565b82525050565b60006105ae8383610593565b60208301905092915050565b6000602082019050919050565b60006105d282610567565b6105dc8185610572565b93506105e783610583565b8060005b838110156106185781516105ff88826105a2565b975061060a836105ba565b9250506001810190506105eb565b5085935050505092915050565b6000602082019050818103600083015261063f81846105c7565b905092915050565b60006020828403121561065d5761065c6102d9565b5b600061066b84828501610304565b91505092915050565b61067d816103fb565b82525050565b60006020820190506106986000830184610674565b92915050565b600080604083850312156106b5576106b46102d9565b5b60006106c385828601610304565b925050602083013567ffffffffffffffff8111156106e4576106e36102de565b5b6106f0858286016104a2565b9150509250929050565b7f4e487b7100000000000000000000000000000000000000000000000000000000600052603260045260246000fdfea26469706673582212207f9023e95516b6251a7bdc21a3844651c2bc6bdac93617990aaf60d5549da83664736f6c634300081c0033",
  "linkReferences": {},
  "deployedLinkReferences": {}
}